:10000000000001200D03000035030000370300004D
:10001000390300003B0300003D0300000000000026
:100020000000000000000000000000003F0300008E
:1000300041030000000000004303000045030000EE
:100040004703000047030000392000004703000079
:100050004703000047030000470300004703000078
:100060004703000047030000470300004703000068
:100070004703000047030000470300004703000058
:100080004703000047030000470300004703000048
:100090004703000047030000470300004703000038
:1000A0004703000047030000470300004703000028
:1000B00047030000470300000000000000000000AC
:1000C0004703000047030000470300004703000008
:1000D00047030000051F0000470300000000000068
:1000E0000000000000000000000000000000000010
:1000F0000000000000000000000000000000000000
:1001000000000000000000000000000000000000EF
:1001100000000000000000000000000000000000DF
:1001200000000000000000000000000000000000CF
:1001300000000000000000000000000000000000BF
:1001400000000000000000000000000000000000AF
:10015000000000000000000000000000000000009F
:10016000000000000000000000000000000000008F
:10017000000000000000000000000000000000007F
:10018000000000000000000000000000000000006F
:10019000000000000000000000000000000000005F
:1001A000000000000000000000000000000000004F
:1001B000000000000000000000000000000000003F
:1001C000000000000000000000000000000000002F
:1001D000000000000000000000000000000000001F
:1001E000000000000000000000000000000000000F
:1001F00000000000000000000000000000000000FF
:10020000044B05481B1A062B02D9044B03B11847AF
:10021000704700BF970000209400002000000000FD
:1002200005490648091A891001EBD171491002D01D
:10023000034B03B11847704794000020940000203E
:100240000000000010B5064C237843B9FFF7D8FF33
:10025000044B13B10448AFF300800123237010BD99
:1002600094000020000000004839000008B5084B49
:100270001BB108490848AFF300800848036813B968
:10028000BDE80840CCE7064B002BF9D09847F7E7CC
:100290000000000098000020483900009000002075
:1002A00000000000134B002B08BF114B9D46A3F527
:1002B000803A00218B460F461148124A121A02F06A
:1002C000F3FF0D4B002B00D098470C4B002B00D0B8
:1002D00098470020002104000D000B4802F0F4FEB6
:1002E00002F020FF2000290002F0B4FB02F0F2FE31
:1002F00000000800000001200000000000000000D5
:1003000094000020C4270020FD3000000649074A61
:10031000074B9B1A03DD043BC858D050FBDC02F0AE
:10032000EDFCFFF7BFFF0000A03900000000002037
:1003300094000020FEE7FEE7FEE7FEE7FEE7FEE7AB
:10034000FEE7FEE7FEE7FEE7F0B595B000241546B0
:100350000F4608461E4601F04DFB3846234608224C
:10036000089505A91A9D0D9509960A948DF82C40BB
:100370000C9401F097FB9DF81430079DBDF8180010
:10038000BDF81A108DF8114003F00302012A0295FE
:10039000ADF80C00ADF80E1028D0022A04D0384673
:1003A00001F02CFB15B0F0BDBDF81650C3F3C2032D
:1003B0008DF81030C5F389150826082D2C4628BF66
:1003C0000824334622460EA9384601F06BFB2D1B4C
:1003D000214608AB02AA0EA8264400F033FD002DEA
:1003E000EBD1384601F00AFB15B0F0BDBDF8146042
:1003F000059DC6F38316C3F3C204B2000EA93846A6
:1004000008238DF81040C5F3952501F04BFB08AB90
:100410000093324628460EA902AB00F06DFCBEE701
:10042000014B01221A707047B0000020704700BFD6
:1004300000B583B0044B0093044A4023FFF784FFC8
:1004400003B05DF804FB00BF51040000B4000020BD
:1004500038B50E480E4D03780E4CEB5C0025257028
:10046000D2B263B90C3002F027F808B100F010FEE8
:10047000094B1B7813B12378002BFCD038BD043016
:1004800002F062FA0028F1D1F2E700BF000000207C
:10049000C0270020B0000020B100002030B5164871
:1004A000164A0378D35C89B00BBB0C3001F09EFF79
:1004B000134D0FCD6C460FC495E80F00062584E858
:1004C0000F004FF0FF334FF0EB74002269460A48EB
:1004D0000095019302930393069401F05DFB08B12C
:1004E00000F0D6FD074B00221A7009B030BD043071
:1004F00002F0C2F9DCE700BF00000020C0270020A6
:1005000040360000B100002030B5104D0FCD89B04D
:100510006C460FC495E80F00062584E80F004FF0E5
:10052000FF334FF0EB740A4A0A480095694601937D
:1005300002930393069401F02FFB08B100F0A8FD8D
:10054000054B01221A7009B030BD00BF40360000D3
:100550002104000000000020B100002008B5FFF7D2
:10056000D3FF0421034800F095FB034B01225A718D
:1005700008BD00BF743900001400002070B5304C75
:1005800084B004F5836000F0FFFD04F2144000F035
:10059000FBFD6268A66802EA0605AB1C04EB83015A
:1005A000081D097911F0040117D0037803F0030343
:1005B000012B37D0022B0DD14388C3F389130233AB
:1005C0001A4406EA0205AB1C04EB8303181D1979D3
:1005D00001F004010029E8D1AB1C04EB8303511C9A
:1005E00058680190314004EB810300F00300DB68A0
:1005F0000293012802F102041AD0022816D1BDF894
:100600000630BDF80A50C3F38913033304EB930497
:100610000B4E06F2144000F0C5FD00B17460284690
:1006200004B070BD0388C3F38313C8E70025EFE768
:10063000BDF80430BDF80A50C3F383131C44E7E748
:10064000F40000200B4B0C4810B50022FF21C3F82A
:10065000182499601A605A60C3F8142483F820247F
:1006600001F080F9044610B9044801F053FA20461D
:1006700010BD00BFF400002084390000983600004F
:1006800021B9114B03EBC0000068704730B40F4A2A
:100690000D4C121BD2080CD00D4D2B88834210D06C
:1006A000002303E035F82310814205D001339A423C
:1006B000F8D1002030BC704704EBC300006830BCA8
:1006C00070472046FAE700BF4C390000743900003B
:1006D00094000020094B013903EBC00003290BD81B
:1006E000DFE801F0020806040220704740797047F5
:1006F0000079704704207047002070474C39000093
:100700002DE9F04F9A4C626823689A4285B000F058
:10071000C7800023C4F81834BFF34F8F6268A56800
:1007200002EA0503023304EB83010E1D0979480731
:100730001FD5D4F800E02746337803F00303012BDC
:1007400048D0022B04D17388C3F3891302331A44AF
:1007500005EA02030233D4F81804DFF814C207EBE9
:1007600083010E1D00283BD196453DD909794907E3
:10077000E2D404EB8303511C58680190294004EB38
:10078000810300F00300DB680293022802F10208F3
:10079000774F2ED0012800F08780D4F810543DB157
:1007A0002B6828469B689847EB681D68002DF7D199
:1007B000704B71487149181AC008000440F00200DB
:1007C00000F0E0F894E80900181A18BF012005B0FD
:1007D000BDE8F08F3388C3F3831302331A44B7E7BD
:1007E00005EA02030233C4E7CCF804E005B0BDE833
:1007F000F08FBDF806306248C3F38919B9F1500F84
:10080000CA46A8BF4FF0500A6AF38F130AF10801D5
:10081000ADF8063001F0A8F806460028BDD025EA5C
:10082000080B0BF1010B01F0E5F84FEA8B0B0023ED
:10083000082201A9304601F001F9DA4571D9BBF16E
:10084000000F7DD1524607F10C010823304601F01C
:10085000F5F809F1030708EB9707D4F81834444A70
:10086000002B69D1D2F810545DB1EB685A7931464A
:1008700028461AB12B681B689847EB681D68002D45
:10088000F3D1304601F0BAF8002000F043FCD4F870
:100890001834374A03B95760002000F043FC91E751
:1008A000002005B0BDE8F08FBDF804303448C3F334
:1008B0008312062A28BF0622911C62F3891389003D
:1008C000ADF8043001F050F8064600283FF465AF5B
:1008D00001F090F80023082201A9304601F0AEF89B
:1008E000BDF8043013F4707F40D04FF0000A4FF091
:1008F000080908EA050104EB81014B460C3104228A
:10090000304601F09BF8BDF804300AF1010AC3F348
:10091000831308F10107534509F10409B846E8D8E3
:100920009BE705EA080107EB81010C3152460823D9
:10093000304601F083F88CE7304601F05FF841E77C
:1009400005EA080107EB8101CBEB0A055A46304660
:100950000C31EDB2082301F071F82A460BF10803BF
:1009600007F10C01304601F069F872E7474674E779
:10097000F40000206C3900004C3900008036000083
:10098000843900002DE9F843DFF8D48005460020C3
:100990000F46D8F8086000F0BDFBD8F80820D8F85A
:1009A0000430D8F80040134401331B1B012B52D8EC
:1009B00001212A4800F0CCFBFFF7E0FD0146274863
:1009C00000F0C6FB98E80A00D8F808201344013369
:1009D0005B1A012BECD90A404FF0010908EB8202A7
:1009E00049F004036FF38913D360D8F80030002076
:1009F0000233C8F8003000F095FB0021174800F0E2
:100A00009BFB80F3100004EB09033340344008EBF8
:100A100083030004023408EB840440EA1540D860E4
:100A2000237965F3C5032371A3886FF38913A3802A
:100A3000626867F39F22134669F301036FF3820331
:100A40006260237198F820341BB1FFF759FE00282B
:100A5000FBD1BDE8F8832146BDE700BF10050020AB
:100A6000F40000202DE9F047DFF8E0900646002072
:100A70000F469046D9F8085000F04CFBD9F8081002
:100A8000D9F80430D9F800400B4401331B1B022B6A
:100A900058D801212C4800F05BFBFFF76FFD0146A1
:100AA000294800F055FB99E80C00D9F808100B44D0
:100AB00001339B1A022BECD94FF0010A0A4009EBD3
:100AC00082024AF004036AF38913D360D9F8003034
:100AD00000200333C9F8003000F024FBA31C2B4096
:100AE00009EB830300211848C3F80C8000F024FBB5
:100AF00080F3100004EB0A032B402C4009EB830326
:100B00000004023409EB840440EA1640D8602379DB
:100B100066F3C5032371A3886AF38913A38062680F
:100B200067F39F2213466AF301036FF38203626047
:100B3000237199F820341BB1FFF7E2FD0028FBD1A7
:100B4000BDE8F0872246B7E710050020F40000203A
:100B50002DE9F04786B04D4C109D0E9F0F9E0092E0
:100B60008146119A01930020049505928A46D4F893
:100B700008800297039600F0CDFAA26863682568A2
:100B8000134401335B1B072B7DD80121404800F043
:100B9000DFFAFFF7F3FC01463D4800F0D9FA94E88C
:100BA0000A00A268134401335B1A072BEDD90A40EF
:100BB000012604EB8202062746F0040367F389133B
:100BC000D360236800200833236000F0ABFAA91C2F
:100BD000EA1C01EA080105F1040E04EB810102EAB6
:100BE0000802009BCB6004EB8202681D0EEA080E2F
:100BF000019BD36004EB8E0EE91900EA0800029B0A
:100C0000CEF80C3004EB8000EA1D01EA0801039BDA
:100C1000C36004EB810102EA080204EB8202049B38
:100C2000CB601B48059BD360002100F085FA80F360
:100C30001000AB1903EA080308EA050504EB830377
:100C40000004023504EB850540EA1940D8602B7991
:100C500069F3C5032B71AB8867F38913AB806A68AE
:100C60006AF39F22134666F301036FF382036A60FF
:100C70002B7194F820341BB1FFF742FD0028FBD103
:100C800006B0BDE8F087294691E700BFF4000020D8
:100C90001005002030B4174DD5F8104400215CB188
:100CA000E3681A79914204D117E0DB681A798A4225
:100CB00013D01B68002BF8D1C3680E4A1971D5F800
:100CC000103493B1DC68C36824681C60D2F8103417
:100CD000DB681860084630BC704701310A29DED154
:100CE0004FF0FF31084630BC7047C2F81004C268AC
:100CF0001360EFE7F40000202DE9F04784B01D46B3
:100D00000C9C002394F80C802373EB8881460E46DC
:100D10001746002B3BD1297A05290FD06B7A002B7F
:100D20003DD1404BA88853F821A00021FFF7A8FC33
:100D3000524603463C49204600F0A6FA062F0FD83B
:100D4000DFE807F0484D535A04633900F168B06892
:100D500096E80C00019100904946204600F094FA74
:100D60002B7A052B05D06B7A5BB93049204600F011
:100D70008BFA204600F07CFA84F80C8004B0BDE8C1
:100D8000F0872B4A2B49204600F07EFAEDE7284AEF
:100D900000922949294A204600F076FABBE7A88844
:100DA000FFF798FC264B234953F82020204600F0FB
:100DB0006BFA297AB5E77069316996E80C000390FF
:100DC000B068F76802918DE881004946204600F03E
:100DD0005BFAC5E74946204600F056FAC0E732689C
:100DE0004946204600F050FABAE7494696E80C001A
:100DF000204600F049FAB3E7B16896E80C002046B7
:100E00000091494600F040FAAAE7B068F7683169F6
:100E100096E80C0002918DE881004946204600F0DA
:100E200033FA9DE7A43600000837000014370000AD
:100E3000FC36000004370000E4360000DC36000019
:100E4000B8360000082900D970472DE9F0471D4643
:100E5000002395F80C902B73D38882B090460746F8
:100E60000E46002B67D198F80810052911D098F884
:100E70000930002B67D13B4BB8F8040053F82140F0
:100E80000021FFF7FDFB224603463749284600F0C4
:100E9000FBF9002405E03A5D013400F0F5F9082C77
:100EA0000AD0A64231492846F5D8314928460134AE
:100EB00000F0EAF9082CF4D12E49DFF8DCA028462E
:100EC00000F0E2F900240FE0DAF800201A4452782A
:100ED00012F0970F14BF1A462E22274928460134D4
:100EE00000F0D2F9082C0DD0A64204D93B5D7E2B30
:100EF000EAD92E22F1E721492846013400F0C4F94D
:100F0000082CF1D198F80830052B02D098F8093058
:100F10005BB91B49284600F0B7F9284600F0A8F94C
:100F200085F80C9002B0BDE8F087164A16492846AD
:100F300000F0AAF9EDE7134A00921449144A284632
:100F400000F0A2F98FE7B8F80400FFF7C3FB114BDC
:100F50000D4953F82020284600F096F998F808101B
:100F600089E700BFA43600000837000018370000EA
:100F70002037000024370000283700001037000019
:100F800014370000FC36000004370000E43600008F
:100F9000DC360000B836000020000020044B195C4D
:100FA0004FF0A04201238B40C2F80835704700BFC4
:100FB000843700004FF0A04310B44FF480204FF46A
:100FC00000344FF400214FF48012C3F80845C3F8F1
:100FD0000805C3F80815C3F808255DF8044B7047E9
:100FE0004FF0A04310B44FF480204FF400344FF47E
:100FF00000214FF48012C3F80C45C3F80C05C3F868
:101000000C15C3F80C255DF8044B7047084B4FF0E6
:10101000A0411B5CD1F80405012202FA03F323EA84
:1010200000020340C1F80825C1F80C35704700BF25
:1010300084370000C20770B41AD54FF0A0430322D2
:101040004FF400364FF480254FF400244FF4801104
:10105000C3F84427C3F84827C3F84C27C3F85027E0
:10106000C3F80865C3F80855C3F80845C3F8081560
:1010700083070AD54FF0A0430C22C3F83427C3F8E6
:101080003827C3F83C27C3F8402770BC704700BF1F
:1010900000B585B000230390194601AA44F201006F
:1010A0000193029301F0C8FC05B05DF804FB00BF9A
:1010B00030B482B001248DF80740154B9DF80750DD
:1010C000186044F20104A04259609A6014D044F2BE
:1010D0000201884208D072B69DF80730002BFBD180
:1010E00062B602B030BC7047DA60DA6812889A6182
:1010F000DA685268DA61EEE71A611A6992685A6131
:101100001A6912689A611A695268DA61E3E700BFE6
:101110008006002072B6024A1368013313607047DC
:10112000A0060020034A1368013B136003B962B6AE
:10113000704700BFA006002000B550E8002F0B4606
:1011400040E8003E9EF0000FF7D110465DF804FB2A
:1011500000B550E8003F03EB010240E8002E9EF08E
:10116000000FF6D110465DF804FB00BF00B550E853
:10117000003FA3EB010240E8002E9EF0000FF6D1E5
:1011800010465DF804FB00BF00B5012350E8002FB6
:1011900042EA030E40E800E191F0000FF6D17046FC
:1011A0005DF804FB00B5002350E800EF0EEA0302EF
:1011B00040E8002191F0000FF6D170465DF804FB85
:1011C000B8B130B4416882680468521AD2B2531E72
:1011D0002160DBB242B101680A685C1E551C0D60DB
:1011E0001370E3B2FF2BF6D103680020187130BCF6
:1011F00070470E20704700BF70B504460020FFF70F
:1012000089FF236861681A688A4215D9511E1960DE
:101210002168A3680D680879268A12F8012CE46811
:101220005B1BDBB2984206FB024400D20B7100202C
:10123000FFF778FF204670BD00240020FFF772FF03
:10124000204670BD38B5054600200C46FFF762FF0A
:101250002A681368591C1160E9682A8A641AB4FB69
:10126000F2F41C700020BDE83840FFF75BBF00BF00
:10127000826802B9704710B5044643690168006985
:1012800098470023A36010BD0EB400B582B0039947
:1012900029B102AA04AB42F8043D00F0A3F802B061
:1012A0005DF804EB03B070472DE9F04F164683B0AC
:1012B000B1428A4605469846DDF830B00D9AC0F036
:1012C0008D800B460127B3FBF6F39E4207F1010721
:1012D000F9D9474538BF474612F00103009302D1C0
:1012E000BBF1000F59D1A868012403E008F1FF38D1
:1012F00006FB04F4B8F1010FF8D8BAFBF4F29642F9
:10130000F6D9DFF8DC904FF00D0810E02968421C98
:10131000AA600B54AA686B689A4202D32846FFF76A
:10132000A7FFB4FBF6F4C4B1BAFBF4F2A86819F84D
:1013300002300A2B02FB14AAE8D12968421CAA60D9
:1013400001F80080A8686A689042DFD328460193BC
:10135000FFF78EFFA868019BD8E7009BB3B1BBF1F4
:10136000000F13D0BB4588BF20240FD9AB682A6873
:10137000591CA960D454AA686B689A420BF1FF3BD0
:1013800007D2BBF1000F01D0BB45EFD803B0BDE8D9
:10139000F08F2846FFF76CFFF3E7930718D420245B
:1013A000BB45A0D9A8682A68431CAB601454A86840
:1013B0006A6890420BF1FF3B05D2BBF1000F93D05E
:1013C000BB45F0D890E72846FFF752FFA868F4E73E
:1013D000B8F1000F0CBF30242024E1E7012778E7A3
:1013E00088370000002900F098822DE9F04FDFF8DF
:1013F00070A50D7885B0064691460C460134002D47
:1014000000F0A180252D40F0A3814FF00008214677
:1014100014F8013B2D2B00F09581302B00F09581C5
:101420002B2B00F087812A2B00F0A281A3F130053D
:10143000EAB2092A98BF013102D9CBE1A2F1300505
:101440000C4611F8013BA3F1300005EB8502092899
:1014500003EB4202F2D91A462E2A00F095810027AA
:1014600001E014F8012F02F0FB03682BF9D0253AB4
:10147000532A63D8DFE812F0400162006200620084
:10148000620062006200620062006200620062004C
:10149000620062006200620062006200620062003C
:1014A000620062006200620062006200620062002C
:1014B000620062006200620062006200620062001C
:1014C000620062006200620062006200620062000C
:1014D00062006200620062006200620062004F010E
:1014E00062006200620062006200620062006200EC
:1014F000620062002901D1006200620062006200A5
:10150000D100620062006200620062006200AC0012
:10151000620062006E0062005400620062004F01CF
:10152000D9F800301A1DC9F800201968CDF80480D8
:101530003B4600950A223046FFF7B6FE0134257877
:10154000002D7FF45BAF337B002B40F0A48105B00E
:10155000BDE8F08FD9F800301A1DC9F8002018F046
:10156000010F1F6840F03A81002F00F0D981384602
:1015700001F006FF8046454515D9A5B14FF0200B77
:1015800000E085B1B2683368511CB16003F802B065
:10159000B26873689A4205F1FF3502D33046FFF70F
:1015A00067FE4545EDD8013F17F8015F002DC5D016
:1015B0000A2DB36800F04E813268591CB160D554D1
:1015C000B26873689A42EFD33046FFF751FEEBE7FB
:1015D000D9F80020131DC9F80030B36831681568C8
:1015E000581C3022B060CA54B3687268934280F0CD
:1015F0002C813268581C7821B060D154B26873686D
:101600009A4280F01E81002208230192294600930D
:1016100010223046FFF748FE90E7D9F800301A1D37
:10162000C9F80020D3F800B08BEAEB73A3EBEB739F
:10163000092B4FF0010108DD8AFB0302DB17C3EB26
:10164000A203092B01F10101F6DCB94238BF39468A
:1016500035B1BBF1000F02DB18F0040F00D0013DE3
:1016600018F0020F40F0E98018F0010F17D1002D9B
:1016700000F038818D4288BF202310D9B268501CF9
:10168000B06030688354B2687068824205F1FF35FB
:1016900080F02A81002D00F025818D42EED8BBF12B
:1016A000000FC0F24F8118F0040F40F0258108F0C0
:1016B0000303022B00F0F5808DE820013B465946DC
:1016C0000A223046FFF7F0FD38E7D9F800301A1D3E
:1016D000C9F800201D78B3680A2D00F02381326814
:1016E000591CB160D554B26873689A42FFF426AFB2
:1016F0003046FFF7BDFD21E7B3683268581C25214D
:10170000B060D154B26873689A42FFF417AF3046A4
:10171000FFF7AEFD12E7D9F800301A1DC9F8002016
:101720001968CDF804803B46009510223046FFF73B
:10173000BBFD03E7214614F8013B2D2B48F00408BC
:101740007FF46BAE48F0010861E648F002085EE6FF
:101750000A2DB3682FD03268591CB160D554B268D5
:1017600073689A42FFF4EBAE3046FFF781FDE6E680
:10177000D9F800301A1DC9F800204A781D682E2AB1
:1017800001F101047FF46BAE6278A2F13003092B02
:1017900004F101044FF000073FF665AE07EB870741
:1017A00002EB470714F8012FA2F13003092BA7F130
:1017B0003007F3D957E6591C3268B1604FF00D017C
:1017C000D154B36872689342C5D33046FFF750FDD9
:1017D000B368C0E71A460C4600253DE6B846C7EB9D
:1017E000080B18F8013B9BB10A2BB16842D0326854
:1017F000481CB0605354B26873689A42EFD33046C5
:10180000FFF736FDC7EB080B18F8013B002BEBD1B7
:101810005D457FF693AE2027B2683368511CB160F6
:101820009F54B26873689A4205F1FF3502D330467F
:10183000FFF71EFD5D45EFD880E6002F3FF42FAF88
:1018400012E73046FFF714FDDDE63046FFF710FDE6
:10185000B368CEE6591C3268B1604FF00D01D15427
:10186000B36872689342FFF4A7AE3046FFF700FDFD
:10187000B368A1E6481C3268B0604FF00D005054C8
:10188000B16872689142B2D330460293FFF7F0FC20
:10189000B168029BABE7304605B0BDE8F04FFFF7FB
:1018A000E7BC002F7FF408AF002D37D08D4288BFF2
:1018B00030237FF601AFB268501CB06030688354AB
:1018C000B2687068824205F1FF3503D235B38D42AC
:1018D000F1D8F1E6304603930291FFF7C9FC039B70
:1018E0000299F3E70025DAE6304603930291FFF709
:1018F000BFFC039B0299CDE6B268531CB36033680A
:101900002B209854B26873689A42FFF4D0AE3046E8
:101910000291FFF7ADFC0299C9E670470025CBE6BE
:10192000B84628E6591C3268B1604FF00D01D15419
:10193000B36872689342FFF4D2AE3046FFF798FC6A
:10194000B368CCE6B268531CB36033682D2098545A
:10195000B26873689A42CBF1000BFFF4A8AED6E7E9
:1019600067666666FFF72CBC2DE9F041B0F8108081
:10197000A8F104084144CF1C0646B7FBF8F7FFF76F
:101980003BFC80B3FFB200250123013F0446A0F8D1
:10199000068006600571437128D0804609E06379AE
:1019A000AF4203F101036371C8F80000066080468E
:1019B0001CD03046FFF720FC01350028EFD16679B6
:1019C000721E234603D0013082421B68FBD81F6879
:1019D0004EB1002523682146013538461C46FFF7E5
:1019E00031FCAE42F6D10020BDE8F0812046BDE8D2
:1019F000F08100BF04300121FFF7AABBF8B5012137
:101A000004460430FFF7B2FBC0B200B1F8BD6679FE
:101A1000721E234603D0013082421B68FBD81F6828
:101A2000002EF3D0002523682146013538461C4698
:101A3000FFF708FCAE42F6D1F8BD00BF2DE9F84330
:101A4000C788467907FB06F6D518043EAE42044621
:101A500003F10400884638BFF51AB0FBF7F128BF40
:101A6000154607FB110011B101392468FCD13E1A5B
:101A7000AE4228BF2E469DB14FF000092044AD1B59
:101A8000324608EB0901043001F074FBAF42B14467
:101A900024683E464FF0000028BF2E46002DEDD1B1
:101AA000BDE8F8832DE9F843C78890F805E007FB07
:101AB0000EFED518AEF1040EAE45044603F1040047
:101AC0008846B0FBF7F638BFC3EB0E0507FB1601DF
:101AD00028BF154616B1013E2468FCD17E1AAE42DD
:101AE00028BF2E469DB14FF000092144AD1B0431A3
:101AF000324608EB090001F03DFBAF42B1442468D7
:101B00003E464FF0000128BF2E46002DEDD1BDE826
:101B1000F88300BF82680023936082681361826843
:101B200053618268D3608268536082681360704733
:101B300070B50A4A0A4B067845688468C06853F84D
:101B4000213052F8211084B003908DF80060019587
:101B50008DF808406846984704B070BDA80600207C
:101B6000A406002070B50A4A0A4B067845688468C6
:101B7000C06853F8213052F8211084B003908DF8DA
:101B8000006001958DF808406846984704B070BD24
:101B9000A8060020A4060020F0B507460678194DD7
:101BA0001948DFF870E00C694B7F45F826400EF8C5
:101BB000063040F826200C4694460FCC89B06D467E
:101BC0000FC594E80F003C781EF8044085E80F002C
:101BD00004965CB9BCF1000F0C4A694607F10C0091
:101BE00008BF002200F03CFB09B0F0BDBCF1000FC3
:101BF000074A694607F1040008BF002200F056FDBD
:101C000009B0F0BDA8060020A4060020651B000056
:101C1000311B0000C02700204F4B1A790AB1082061
:101C200070472DE9F041847990F8078090F808C05A
:101C3000467A90F80AE0C568077C1CB9012E70D07E
:101C4000022E64D0454AC2F80445C2F82485C2F881
:101C500020C5C2F81C65C2F828E5C2F81875002D29
:101C600052D00124C2F81455C2F810458279002AD6
:101C70005AD102784FF0A04402F5E072032544F8EF
:101C80002250427802F5E07244F822508278FF2A0E
:101C90005BD002F5E07416464FF0A042032542F8EF
:101CA0002450C278FF2A4DD002F5E07415464FF05B
:101CB000A042032742F824700279FF2A48D002F597
:101CC000E07714464FF0A0424FF0000E42F827E0B4
:101CD000224A90F800E04778C2F864E5C2F86875D7
:101CE000C2F86065C2F87055C2F86C4542791C486C
:101CF00019605201D2B22021012480F825231C71E1
:101D000041600020BDE8F081C2F81055AEE7082F11
:101D100098D840F25512FA40D20793D50720BDE873
:101D2000F081012F8ED1F9E702784FF0A04402F53F
:101D3000E072002544F82250427802F5E07244F83F
:101D40002250A3E74FF0FF35B6E74FF0FF36A8E784
:101D50004FF0FF34BCE700BFAC060020005002404B
:101D600000E100E0374B1A79012A01D008207047C2
:101D7000F0B4026884B00C4642B102F06041B1F1A7
:101D8000005F03D0102004B0F0BC7047416821B15F
:101D900001F06041B1F1005FF4D159792A4F2B4D28
:101DA0002B4E003218BF012262F3000159714168C5
:101DB0005A79DC80003118BF012161F3410202F041
:101DC000F3026FF304125A7103C887E8030098689E
:101DD000D968C5F85045071C18BF01270C1CC5F869
:101DE000380518BF012400200122C5F80875C5F880
:101DF0004015C5F80C45C5F8002530603468154914
:101E00000394039C08600C680294029C41F80C0C3B
:101E10000C39096801910221186158611971019901
:101E2000597901EA020383420BBF042306232424C9
:101E3000262411F0020F18BF2346C5F804332A6088
:101E4000A1E700BFAC060020B4060020005002400D
:101E5000045102401451024010B4184B5A79D40670
:101E600003D408205DF8044B7047026842B102F0C9
:101E70006042B2F1005F03D010205DF8044B704760
:101E8000426822B102F06041B1F1005FF4D15979AA
:101E9000890744BF0A49C1F840255A79D20703D5BA
:101EA000074A0168C2F8381503C85C79054A6FF320
:101EB000041482E803005C710020D3E7AC06002024
:101EC00000500240B4060020F0B4094A094E51798E
:101ED000094D0A4C0A48012322276FF30411C6F862
:101EE000087351712B6023600360F0BC704700BF22
:101EF000AC0600200050024004500240385002401E
:101F00003C500240F0B5464B1A6885B0F2B9454CDA
:101F1000454B1A6862B100221A6062791B6801930E
:101F200042F004031A46D007637101993D4B25D452
:101F30003E4B1A68002A2AD163799F0719D4D90722
:101F400060D5637958073AD405B0F0BD0022354C0E
:101F50001A6062791B68009342F008039E071A46D4
:101F600000996371D4D5DD0644BF43F0200262714D
:101F7000CEE7DE0721D51D07E6D5E2E7D10644BF4F
:101F800042F020025A71294B1A68002AD4D0002549
:101F90001D601A68029204220299C3F80022C3F855
:101FA000F853236822482946984723682148294640
:101FB00098470123237105B0F0BD1A07C4D5637992
:101FC000184D03F0F7036FF38203DAB2C2F3401641
:101FD0006371D6B905F1100393E8030002AC05F173
:101FE000080784E8030097E8030042F0100283E842
:101FF00003006A71AE602046EE602B6801219847AD
:1020000005B0F0BD1B079CD5D9E702F0DF0242F016
:1020100010026A712B6801210020984705B0F0BDBD
:1020200014510240AC060020045102400851024005
:10203000BC060020B4060020014B1B68184700BFF7
:10204000C406002038B50C4B984201D0002038BDA2
:1020500000200D46FFF75EF8084B1C7924B10020E4
:10206000FFF760F8112038BD012220461D601A716B
:10207000FFF758F8204638BD00200040C406002075
:10208000034B984203D1034B00221A601A71704728
:1020900000200040C406002030B56F4AD2F8043357
:1020A00099058BB05CD5D2F82431002B58D0002391
:1020B000C2F82431D2F8243103934FF40171674BF5
:1020C0000398C2F8081393F8291009B90121516047
:1020D000614902228DF81820D1F88024C1F88024AB
:1020E0009869D96809920022089007919A6193E84B
:1020F0001200DA6106A8A047574AD2F81C31C3B1D2
:10210000564B186A5969884267D293F8280000F044
:10211000FF04002861D1C2F81C41D2F81C110291C1
:1021200002999C68186A196A205C01311962C2F828
:102130001C05494AD2F8443183B10021474BC2F80B
:102140004411D2F8440193F829100090009809B185
:10215000012111609A69414B002A53D10BB030BD67
:102160003D4AD2F804335B07C6D5D2F80831002BBC
:10217000C2D03A4B9969002953D00021C2F8081106
:10218000D2F8081104910499D868596AD2F8182530
:1021900042545A6A996901325A62586A2F4A8842EF
:1021A000AAD1D169002945D192F8292012B92A4A29
:1021B00001215160284A4FF40171C2F80813596A8D
:1021C000DA6808910024012007928DF8180093E83E
:1021D00006009C6106A890478EE71F4A0020C2F8BF
:1021E0001C01D2F81C210192019A0029A1D09A6801
:1021F0008DF8180008915861079206A893E8060028
:10220000904796E70022586AD9689A61012208909F
:1022100007918DF8182006A893E8060090470BB0A8
:1022200030BDC2F80811D2F8080105900598D2F81F
:102230001825B2E7D568546A10699161002301211D
:10224000D060D36153628DF818100795089492E816
:102250000A0006A898474FE700200040CC0600205F
:102260002DE9F0415C4E05792C2303FB056382B018
:1022700093F82A301BB1082002B0BDE8F0810F4668
:102280000446564900689046FFF7DCFE18B111205D
:1022900002B0BDE8F0813A68511C0BD04FF0A0416C
:1022A00001239340C1F808353B6803F5E07303222E
:1022B00041F823207B685A1C06D003F5E0734FF0E9
:1022C000A042002142F823102368BA69C3F82425EC
:1022D000797D3B7D22680B43C2F86C3597E8060098
:1022E0002368C3F81425C3F80C153B7D012B49D096
:1022F0002C2303FB05F3F218C2F804803A69F2506C
:10230000B8F1000F2DD023683A7F354F0021C3F874
:102310001C11D3F81C3100932368DDF800E0C3F8EA
:102320004411D3F84411236801910199C3F804734F
:102330002168090B4BB2002B46DB03F1604303F528
:1023400061435201D2B283F800232368254F1B0B4F
:102350005AB2520903F01F03012101FA03F347F8AF
:1023600022302C23246803FB05630022042501216D
:10237000C4F8005583F82A109A61DA6183F829209D
:102380005A6179E7BB68591C06D003F5E0734FF03A
:10239000A042002142F82310FB685A1C0DD00122F4
:1023A0004FF0A04102FA03F3C1F80835FB6803F5CA
:1023B000E073032241F82320FB682268B968C2F861
:1023C0000835C2F8101593E7074B01F00F015201D1
:1023D0000B44D2B21A76B8E7CC0600209920000050
:1023E0008000020000E100E0FCEC00E0F8B52F4DB9
:1023F000047902682C2303FB045300215B68C2F8B4
:10240000001583B103682A4AC3F808230368294EDC
:102410001B0B5AB25209203203F01F03012101FAAB
:1024200003F346F8223003684FF0FF32D3F80CE58F
:10243000D3F81475D3F80815D3F81065C3F814252C
:10244000C3F80C2503689645C3F80825C3F8102582
:1024500006D00EF5E07E4FF0A043022243F82E2076
:102460007B1C06D007F5E0774FF0A043022243F82B
:102470002720721C06D006F5E0764FF0A04302221A
:1024800043F826204B1C06D001F5E0714FF0A04325
:10249000022243F821200068FFF7F2FD2C2303FB02
:1024A0000454002384F82A306360F8BDCC06002071
:1024B0008402020000E100E0F0B5304E05792C23E3
:1024C00003FB056385B05C6914B1112005B0F0BD54
:1024D0001C62996083F828405A610268C2F81C4166
:1024E000D2F81C11026802910121029F91600268DA
:1024F000D3F808E0C2F81C41D2F81C1101910199EF
:10250000D3F820C0196A5F681EF80CC00131196247
:10251000C2F81CC517B1204605B0F0BD1A6A5C6947
:102520000168944203D819E093F82820F2B9D1F851
:102530001C21002AF8D0C1F81C71D1F81C2103928B
:10254000039AD3F820C01A6A1EF80CC001321A622E
:10255000C1F81CC51A6AA242E9D30168D1F81C313E
:10256000002BFBD00123CB60002000E00F202C23A8
:1025700003FB056300225A61A8E700BFCC060020D8
:1025800070B5484BD3F8242188B0002A53D1D3F832
:102590001011F1B9434BD3F8442152B10021424A02
:1025A000C3F84411D3F8444190690194019C002878
:1025B0005DD13C4BD3F820214AB10021C3F8201152
:1025C000D3F82001384A00900098506928BB08B021
:1025D00070BDC3F81021D3F810113348039103994B
:1025E0008469D3F83C15A142D4D1C469002C4DD0E4
:1025F000D3F80062846126F02004C568C3F8004265
:102600000369C26101220691C360016843680595B0
:102610008DF8102004A89847BCE7D3F84C059368C0
:1026200006908DF810105161059304A892E80A00F5
:10263000984708B070BD0021C3F82411D3F82421B5
:10264000029202228DF81020029AD3F88004164AD2
:10265000C3F880040790D3F83C05D36806909161D5
:10266000D16105931168536804A8984792E7D3F89D
:102670003C35D068069301239161D16105908DF8B6
:10268000103004A892E80A00984792E7C268846173
:10269000012306918DF81030059290E80A0004A8F5
:1026A000984777E700200040F80600202DE9F04326
:1026B00004796C4EE7003B1906EB830385B093F871
:1026C00020301BB1082005B0BDE8F08389460546DF
:1026D000654900689046FFF7B5FC18B1112005B0B8
:1026E000BDE8F083D9F80020511C0CD04FF0A04178
:1026F00001239340C1F80835D9F8003003F5E073A1
:10270000032241F82320D9F804305A1C06D003F5DF
:10271000E0734FF0A042002142F823102B68D9F853
:102720001820C3F8242599F8151099F814202B685F
:102730000A43C3F86C252A68D9F80030D9F8041088
:10274000C2F80C35C2F8141599F81430012B5AD080
:102750003A199200B318C3F80480D9F81030B35076
:10276000B8F1000F40D0296899F81C20DFF800E18B
:102770000023C1F81031D1F8101100912968DDF85B
:1027800000C0C1F82031D1F8201101912968DDF88D
:1027900004C0C1F82431D1F8241102912968DDF870
:1027A00008C0C1F84431D1F844112B680391039952
:1027B000C3F804E32968090B4BB2002B4ADB03F191
:1027C000604303F561435201D2B283F800232B68C2
:1027D000DFF8A0E01B0B5AB2520903F01F030121DE
:1027E00001FA03F34EF822303C442A6806EB8404D5
:1027F000002301250821C2F8001584F82050A361A8
:10280000E36163615FE7D9F80830591C06D003F52E
:10281000E0734FF0A042002142F82310D9F80C30A9
:102820005A1C0FD001224FF0A04102FA03F3C1F865
:102830000835D9F80C3003F5E073032241F8232062
:10284000D9F80C302A68D9F80810C2F80835C2F84F
:1028500010157DE7054B01F00F0152010B44D2B278
:102860001A76B4E7F806002081250000FCEC00E0B1
:102870001003020000E100E0F8B505792F4C026872
:10288000EE00731904EB830300215B68C2F80015A6
:1028900083B103682A4AC3F808230368294F1B0B36
:1028A0005AB25209203203F01F03012101FA03F347
:1028B00047F8223003684FF0FF32D3F80CC5D3F845
:1028C00014E5D3F80815D3F81075C3F80C25C3F830
:1028D000142503689445C3F80825C3F8102506D0CD
:1028E0000CF5E07C4FF0A043022243F82C20BEF10F
:1028F000FF3F06D00EF5E07E4FF0A043022243F8E2
:102900002E207A1C06D007F5E0774FF0A043022274
:1029100043F827204B1C06D001F5E0714FF0A0438F
:10292000022243F82120354404EB85040068FFF7B8
:10293000A7FB002384F820306360F8BDF806002070
:102940001003020000E100E001F06043B3F1005F1A
:1029500001D010207047F0B50579204EEF007C19AA
:1029600006EB840483B0636913B1112003B0F0BD9A
:102970006261A1600268C2F82031D2F820E10268E9
:10298000CDF804E0DDF804E0C2F85831D2F858215F
:1029900000920268DDF800E0D4F814E0C2F84415B3
:1029A000C2F848E502680121916062680AB11846E0
:1029B000DCE7036800E079B9D3F82021D3F8581197
:1029C000002AF8D0002914BF0F2000207B1906EB45
:1029D000830300225A61C9E70F20F7E7F8060020B9
:1029E000CB070ED510B5036882B004466BB10E4A12
:1029F0001360FFF731FA28B90C4B62681A6002B015
:102A000010BD7047FEF744FBF6E7094B93E803005F
:102A10008DE803006846FFF71FFA08B1FEF738FBA0
:102A2000024B044A1A60EAE7281700202417002006
:102A3000B0370000301F002070B504460D46164622
:102A4000FEF7CEFA324629462046BDE87040FEF732
:102A50002FBB00BF2DE9F04F01208FB0FEF7EAFA3F
:102A600000210846FDF7EEFD08B1FEF711FBFDF76A
:102A700075FD914A914B924D92499B1ADB081B04BC
:102A800043F0030318460593FDF77CFF0FCD09AC17
:102A90000FC42B6823601A261B254FF040640322C5
:102AA000002389498DF8286009A88DF827500C94D7
:102AB0008DF834208DF82E30FFF7AEF808B1FEF710
:102AC000E7FADFF82482814EDFF82C920027804B52
:102AD0003770C8F800701F603378002B40F0E28038
:102AE0007C4B1B78002B40F0DD807B490B70794BD1
:102AF00002221A70794B4CF6FE241C80784B224639
:102B000003F50060511C89B2013A1A8059800433E0
:102B100098420A46F6D1734B93E8030007AB83E86B
:102B2000030004F5007400224FF400711846A9F860
:102B30000040FFF717F9002840F0B78020BF40BFE2
:102B400020BFD8F800301BB3674B1B683278002ACF
:102B50004CD1604A1278002A48D15F4802705D4A21
:102B6000022111705D4A4CF6FE24148003F50060CA
:102B70002246511C89B2013A1A805980043383429B
:102B80000A46F6D104F50074A9F80040C8F80070B0
:102B90004F4B1B68A3B14E4B4F4AD3F800B033786C
:102BA00092F800A00133DBB23370BAF1000F20D0ED
:102BB0000020FEF7F3F90120FEF728FA444B1F60CE
:102BC0003378132BBAD9FFF77FF9FDF799FD002869
:102BD000FBD1FEF7EFF9454B4FF4FA7443F00105D2
:102BE0004FF47A40A847013CFAD170E7B9F80040A9
:102BF000BCE73A4A374BB2F800E01B785A465446D5
:102C00000BE0BCF1000F13D1013B8DB90134B4F5D9
:102C1000007FDBB202F1040219D00EF1FF310EF198
:102C2000010089B280B23BF824C05588002BE8D15E
:102C30008C451FD185422FD10134B4F5007F4FF070
:102C4000010AAE464FF0000302F10402E5D1214A29
:102C50001370BAF1000F2BD1327825490598FDF792
:102C600001FF1D4B01201F70FEF798F90020FEF7B1
:102C7000CDF9A3E7174B1F70184B188032780290DC
:102C800001916346039400951A490598FDF760FF8A
:102C9000114A012313708BE70E4B1F700F4B6146D7
:102CA0001880EBE7B9F8004028E7FEF7F1F945E7AF
:102CB0000A4BA3F800E0CFE74C3900006C39000064
:102CC000B8370000E8370000E12900002C17002089
:102CD00028170020200700201C07002022070020C2
:102CE00030170020CC37000024170020E037000008
:102CF00034380000083800001E070020F0B4B44B40
:102D00001A78062A20D0B34B1B68062B00F08A8065
:102D1000B14AD2F8883043F47003C2F88830BFF368
:102D20004F8FBFF36F8F4FF01023D3F80022002A8C
:102D3000C0F28A81D3F80432002BC0F28581A74B00
:102D4000A74A1A60F0BC704704331B681807DAD131
:102D5000A44B1B6803F0F002302A00F0658103F0F9
:102D6000E003402B00F060819E4B1B6803F0F003F2
:102D7000302B00F01E819B4B1B6803F0F002302AC1
:102D800000F0078103F0E003402B00F00281954B37
:102D90001B6803F0F003302B00F0EB80914B1B68B5
:102DA00003F0F002302A00F0D08003F0E003402B63
:102DB00000F0CB808B4B1B6803F0F003302B00F04E
:102DC000B680884B1B6803F0F003302B00F098802E
:102DD000844B1B6803F0F003502B3FD0814B1B68E2
:102DE00003F0F002302A28D003F0E003402B24D077
:102DF0007C4B1B6803F0F002302A03D003F0E003A1
:102E0000402B80D14FF08043D3F80024D2077FF5C8
:102E10007AAF6FF00102C3F800246E4B1B68062BDB
:102E20007FF476AF704B1B68062B7FF471AF6F4A4F
:102E3000136843F4806313606AE76D4B6D4A1B6847
:102E400003F04F031360624B1B78062B7FF45BAFDC
:102E5000694B1B6818077FF456AFC9E74FF08052E3
:102E6000664BD2F80414C3F82015D2F80814C3F83E
:102E70002415D2F80C14C3F82815D2F81014C3F88E
:102E80002C15D2F81414C3F83015D2F81814C3F85E
:102E90003415D2F81C14C3F84015D2F82014C3F826
:102EA0004415D2F82414C3F84815D2F82814C3F8EE
:102EB0004C15D2F82C14C3F85015D2F83014C3F8BE
:102EC0005415D2F83414C3F86015D2F83814C3F886
:102ED0006415D2F83C14C3F86815D2F840143C4885
:102EE000C3F86C15D2F844140278C3F87015062A9A
:102EF0007FF409AF404B1B681C077FF404AF6DE7FC
:102F00003F4E404C4049414B0527012500203F22C0
:102F10003760256008601A602D4B1B78062B7FF404
:102F2000F2AE354B1B681D077FF4EDAE50E7284B22
:102F3000374A1B780321062B11607FF4E4AE2E4B39
:102F40001B681E077FF4DFAE3BE74FF08043002293
:102F5000C3F80C21C3F81021C3F838251C4B1B788B
:102F6000062B7FF470AF244B1B681F077FF4CBAE9A
:102F700020E72849164ACB68127823F08073062A86
:102F8000CB607FF4C0AE1C4B1B681B077FF4BBAE4D
:102F900004E7214B0E4A1B6812782049C3F34233E1
:102FA000062A0B60B8D1144B1B681A077FF4ABAE2E
:102FB000EDE6074B1A4A1B781A491160062B7FF47D
:102FC000A2AE0D4B1B6819077FF49DAED3E600BF80
:102FD000E00F00F03001001000ED00E01C000020C8
:102FE0000090D003E80F00F0340100103C170040BF
:102FF00058020010E40E0040E40F00F000C0004052
:1030000010560040885600401856004014560040A4
:10301000A0050040F0ED00E0440200103C05004037
:1030200074C007400DF0ADBA204B214A1B681278DE
:103030002049C3F30423062A0B608FD11E4B1B6863
:1030400019073FF491AE5EE61C4B0122C3F804253C
:10305000D3F80024002AFBD04FF010231522174983
:10306000C3F80022D1F80034002BFBD04FF010231E
:1030700015221249C3F80422D1F800240F4B002A6C
:10308000FAD00022C3F80425D3F80024002AFBD08C
:10309000BFF34F8F0A490B4BCA6802F4E062134337
:1030A000CB60BFF34F8F00BFFDE700BF24030010CC
:1030B000E00F00F040350140E40F00F000E0014077
:1030C00000ED00E00400FA05002301461A46184608
:1030D00000F0C4B908B5074B044613B1002100F055
:1030E00025FA054B1868836A03B19847204600F01B
:1030F00099FA00BF2D3500004039000038B5074D62
:10310000074C2C1BA41005D0013C55F8043D9847F2
:10311000002CF9D1BDE8384000F08CBA90000020B6
:103120008C00002070B50F4E0F4D761BB61018BFE7
:10313000002405D0013455F8043B9847A642F9D144
:103140000A4E0B4D761B00F06FFAB61018BF002424
:1031500006D0013455F8043B9847A642F9D170BD1A
:1031600070BD00BF88000020880000208C00002077
:1031700088000020844641EA000313F003036DD168
:10318000403A41D351F8043B40F8043B51F8043B2A
:1031900040F8043B51F8043B40F8043B51F8043B31
:1031A00040F8043B51F8043B40F8043B51F8043B21
:1031B00040F8043B51F8043B40F8043B51F8043B11
:1031C00040F8043B51F8043B40F8043B51F8043B01
:1031D00040F8043B51F8043B40F8043B51F8043BF1
:1031E00040F8043B51F8043B40F8043B51F8043BE1
:1031F00040F8043B51F8043B40F8043B51F8043BD1
:1032000040F8043B403ABDD2303211D351F8043B70
:1032100040F8043B51F8043B40F8043B51F8043BB0
:1032200040F8043B51F8043B40F8043B103AEDD21F
:103230000C3205D351F8043B40F8043B043AF9D270
:10324000043208D0D2071CBF11F8013B00F8013B43
:1032500001D30B8803806046704700BF082A13D350
:103260008B078DD010F003038AD0C3F10403D21A68
:10327000DB071CBF11F8013B00F8013B80D331F89C
:10328000023B20F8023B7BE7043AD9D3013A11F81C
:10329000013B00F8013BF9D20B7803704B78437087
:1032A0008B7883706046704770B4840746D0541E94
:1032B000002A41D0CDB2034602E0621EE4B31446B8
:1032C00003F8015B9A07F8D1032C2ED9CDB245EA59
:1032D00005250F2C45EA054519D903F110022646AC
:1032E000103E0F2E42F8105C42F80C5C42F8085C6D
:1032F00042F8045C02F11002F2D8A4F1100222F0AC
:103300000F0204F00F041032032C13440DD91E4693
:103310002246043A032A46F8045BFAD8221F22F018
:1033200003020432134404F003042CB1C9B21C4458
:1033300003F8011BA342FBD170BC7047144603463F
:10334000C2E700BF00000000000000000000000015
:10335000000000000000000000000000000000006D
:10336000000000000000000000000000000000005D
:10337000000000000000000000000000000000004D
:1033800090F800F06DE9024520F007016FF0000CA5
:1033900010F0070491F820F040F049804FF000044D
:1033A0006FF00700D1E9002391F840F000F1080028
:1033B00082FA4CF2A4FA8CF283FA4CF3A2FA8CF360
:1033C0004BBBD1E9022382FA4CF200F10800A4FAC7
:1033D0008CF283FA4CF3A2FA8CF3E3B9D1E904231B
:1033E00082FA4CF200F10800A4FA8CF283FA4CF352
:1033F000A2FA8CF37BB9D1E9062301F1200182FA0C
:103400004CF200F10800A4FA8CF283FA4CF3A2FA11
:103410008CF3002BC6D0002A04BF04301A4612BA1F
:10342000B2FA82F2FDE8024500EBD2007047D1E922
:10343000002304F00305C4F100004FEAC50514F0B1
:10344000040F91F840F00CFA05F562EA05021CBF82
:1034500063EA050362464FF00004A9E72DE9F0474F
:103460002E4E34680746884691469A46002C37D03F
:1034700065681F2D13DD2A4B002B4AD08C20AFF33B
:1034800000800446002844D0336803600023306085
:103490004360C0F8883077BB3D46012313E08FB10D
:1034A000D4F8880028B3D0F8001140F82590012600
:1034B000AE4000EB85033143022FC0F80011C3F882
:1034C00080A007D06B1C02356360002044F8258083
:1034D000BDE8F087D0F804311E43C0F80461F1E77D
:1034E000104B114C3460002BC2D01B68C4F88830DC
:1034F000BEE70B4B6BB14FF48470AFF3008040B16B
:1035000000216568C0F80011C0F80411C4F88800F3
:10351000CBE74FF0FF30BDE8F08700BFBC270020AD
:103520000000000000000000302700202DE9F04FCF
:1035300083B00F460190394BD3F80090B9F1000FDA
:1035400032D09B46D9F80450D9F888806C1E11D42B
:10355000AD002E1D4E4445444FB3B8F1000F02D0CC
:10356000EB6F9F4223D0013C631CA5F10405A6F13B
:103570000406F1D12A4BBBB1D9F80430002B44D159
:10358000D9F80030002B42D0CBF80030B8F1000F52
:1035900002D04046AFF300804846AFF30080DBF82E
:1035A0000090B9F1000FCDD103B0BDE8F08FD9F88C
:1035B00004303268013BA34216BF0023C9F804401F
:1035C0003360002ACFD0D9F804A0B8F1000F16D08C
:1035D000D8F800110123A3400B4210D0D8F80411F1
:1035E0000B420ED155F8041C01989047D9F80430CD
:1035F0009A45A0D1DBF800304B45B4D09BE790470B
:10360000F4E755F8040C9047F0E7D9F80030CB46C2
:103610009946B9F1000F95D1C6E700BFBC2700203D
:1036200000000000FEE700BFF8B500BFF8BC08BC12
:103630009E467047F8B500BFF8BC08BC9E46704770
:10364000FFFFFFFFFFFFFFFFFFFFFFFFFFFFFFFF8A
:1036500000000000000000000000D601060100008C
:10366000310400009D0400002D0400007561727497
:103670005F6C6F675F6261636B656E640000000082
:103680004261636B656E647320666C757368656414
:103690000000000061707000D80500207F0000006D
:1036A0006806002000000000643700006C3700004E
:1036B000743700007C370000FC3600002C37000017
:1036C000DC360000343700003C370000443700008F
:1036D0004C370000543700005C3700001B5B313B67
:1036E00033316D0025734C6F67732064726F707097
:1036F0006564202825642925730D0A001B5B306D45
:1037000000000000257300003C25733E2025733A1D
:10371000200000000D0A0000202530327800000053
:10372000202020007C000000256300001B5B313B53
:1037300033306D001B5B313B33326D001B5B313B23
:1037400033336D001B5B313B33346D001B5B313B0E
:1037500033356D001B5B313B33366D001B5B313BFA
:1037600033376D006572726F720000007761726EA0
:10377000696E6700696E666F0000000064656275BF
:1037800067000000111213143031323334353637EC
:103790003839414243444546493253005052530060
:1037A000554152540000000055415254450000005C
:1037B000240F0020301F00201F1EFF1D1C060000CC
:1037C0000001010000000020D000000024070020BC
:1037D0003017002000000000000000000000000082
:1037E0000338FDD870470000493253206C6F6F706A
:1037F0006261636B206578616D706C6520737461C4
:10380000727465642E0000002533753A202530342B
:10381000782F253034782C20657870656374656462
:103820003A20253034782F253034782028693A2002
:10383000257529002533753A204F4B0000202020A4
:103840002020202020202828282828202020202050
:103850002020202020202020202020202088101020
:10386000101010101010101010101010100404047C
:10387000040404040404041010101010101041413A
:103880004141414101010101010101010101010128
:10389000010101010101010110101010101042423C
:1038A00042424242020202020202020202020202F8
:1038B0000202020202020202101010102000000098
:1038C00000000000000000000000000000000000F8
:1038D00000000000000000000000000000000000E8
:1038E00000000000000000000000000000000000D8
:1038F00000000000000000000000000000000000C8
:1039000000000000000000000000000000000000B7
:1039100000000000000000000000000000000000A7
:103920000000000000000000000000000000000097
:103930000000000000000000000000000000000087
:0C394000280000204300000000000000F0
:10394C0098370000000000009C37000000000000C9
:10395C00A037000000000000A837000000000000A5
:08396C00943600000000030383
:1039740060360000000000006C36000014000020D7
:10398400600600205806002060060020180500206C
:043994001800000017
:083998000CC9FF7F01000000D3
:1039A0000000000000200040000000000020004057
:1039B0000000000000000000FF0000000090D003A5
:1039C0003C3800002800002000000000000000003B
:1039D00000000000000000000000000000000000E7
:1039E000000000000000000044390000000000005A
:1039F00000000000000000000000000000000000C7
:103A000000000000000000000000000000000000B6
:103A100000000000000000000000000000000000A6
:103A200000000000000000006D02000045020000E0
:043A30000000000092
:040000030000030DE9
:00000001FF
