:020000022000DC
:10600000000001202D67020055670200576702005B
:10601000596702005B6702005D6702000000000034
:106020000000000000000000000000005F670200A8
:1060300061670200000000006367020065670200FC
:106040005993020067670200E59B02006767020040
:106050006767020067670200F19602006767020047
:1060600067670200676702006767020067670200F0
:1060700067670200676702006767020067670200E0
:1060800067670200F1770200676702006767020036
:10609000917802006767020001D902006767020079
:1060A00067670200676702006767020067670200B0
:1060B0006767020067670200000000000000000040
:1060C0006767020067670200676702006767020090
:1060D00067670200F96502006767020000000000C0
:1060E00000000000000000000000000000000000B0
:1060F00000000000000000000000000000000000A0
:10610000000000000000000000000000000000008F
:10611000000000000000000000000000000000007F
:10612000000000000000000000000000000000006F
:10613000000000000000000000000000000000005F
:10614000000000000000000000000000000000004F
:10615000000000000000000000000000000000003F
:10616000000000000000000000000000000000002F
:10617000000000000000000000000000000000001F
:10618000000000000000000000000000000000000F
:1061900000000000000000000000000000000000FF
:1061A00000000000000000000000000000000000EF
:1061B00000000000000000000000000000000000DF
:1061C00000000000000000000000000000000000CF
:1061D00000000000000000000000000000000000BF
:1061E00000000000000000000000000000000000AF
:1061F000000000000000000000000000000000009F
:10620000044B05481B1A062B02D9044B03B118474F
:10621000704700BF5B2B0020582B002000000000BF
:1062200005490648091A891001EBD171491002D0BD
:10623000034B03B118477047582B0020582B002000
:106240000000000010B5064C237843B9FFF7D8FFD3
:10625000044B13B10448AFF300800123237010BD39
:10626000582B002000000000F40A030008B5084B7A
:106270001BB108490848AFF300800848036813B908
:10628000BDE80840CCE7064B002BF9D09847F7E76C
:10629000000000005C2B0020F40A0300542B0020B7
:1062A00000000000134B002B08BF114B9D46A3F5C7
:1062B000803A00218B460F461148124A121A07F005
:1062C000AFFD0D4B002B00D098470C4B002B00D09E
:1062D00098470020002104000D000B4807F0B0FC97
:1062E00007F0DCFC2000290005F004F907F0AEFC03
:1062F0000000080000000120000000000000000075
:10630000582B00208C4A002075DC02004F4B1A7974
:106310000AB1082070472DE9F041847990F8078090
:1063200090F808C0467A90F80AE0C568077C1CB966
:10633000012E70D0022E64D0454AC2F80445C2F83E
:106340002485C2F820C5C2F81C65C2F828E5C2F849
:106350001875002D52D00124C2F81455C2F810450A
:106360008279002A5AD102784FF0A04402F5E072F7
:10637000032544F82250427802F5E07244F8225096
:106380008278FF2A5BD002F5E07416464FF0A042F7
:10639000032542F82450C278FF2A4DD002F5E0745C
:1063A00015464FF0A042032742F824700279FF2AD5
:1063B00048D002F5E07714464FF0A0424FF0000EAF
:1063C00042F827E0224A90F800E04778C2F864E5F6
:1063D000C2F86875C2F86065C2F87055C2F86C45BD
:1063E00042791C4819605201D2B22021012480F860
:1063F00025231C7141600020BDE8F081C2F81055D2
:10640000AEE7082F98D840F25512FA40D20793D53C
:106410000720BDE8F081012F8ED1F9E702784FF017
:10642000A04402F5E072002544F82250427802F5BB
:10643000E07244F82250A3E74FF0FF35B6E74FF083
:10644000FF36A8E74FF0FF34BCE700BF742B0020F5
:106450000050024000E100E0374B1A79012A01D0D8
:1064600008207047F0B4026884B00C4642B102F0D4
:106470006041B1F1005F03D0102004B0F0BC704760
:10648000416821B101F06041B1F1005FF4D1597967
:106490002A4F2B4D2B4E003218BF012262F3000110
:1064A000597141685A79DC80003118BF012161F3CC
:1064B000410202F0F3026FF304125A7103C887E835
:1064C00003009868D968C5F85045071C18BF012714
:1064D0000C1CC5F8380518BF012400200122C5F89E
:1064E0000875C5F84015C5F80C45C5F8002530609D
:1064F000346815490394039C08600C680294029C5C
:1065000041F80C0C0C39096801910221186158619D
:1065100019710199597901EA020383420BBF0423DF
:1065200006232424262411F0020F18BF2346C5F8A1
:1065300004332A60A1E700BF742B00207C2B0020CD
:1065400000500240045102401451024010B4184B54
:106550005A79D40603D408205DF8044B70470268CA
:1065600042B102F06042B2F1005F03D010205DF84A
:10657000044B7047426822B102F06041B1F1005F04
:10658000F4D15979890744BF0A49C1F840255A799D
:10659000D20703D5074A0168C2F8381503C85C79E9
:1065A000054A6FF3041482E803005C710020D3E70E
:1065B000742B0020005002407C2B0020F0B4094ACC
:1065C000094E5179094D0A4C0A48012322276FF3DD
:1065D0000411C6F8087351712B6023600360F0BC8E
:1065E000704700BF742B002000500240045002404E
:1065F000385002403C500240F0B5464B1A6885B016
:10660000F2B9454C454B1A6862B100221A606279B2
:106610001B68019342F004031A46D0076371019985
:106620003D4B25D43E4B1A68002A2AD163799F0737
:1066300019D4D90760D5637958073AD405B0F0BDAD
:106640000022354C1A6062791B68009342F00803FF
:106650009E071A4600996371D4D5DD0644BF43F006
:1066600020026271CEE7DE0721D51D07E6D5E2E7FD
:10667000D10644BF42F020025A71294B1A68002A01
:10668000D4D000251D601A68029204220299C3F832
:106690000022C3F8F8532368224829469847236804
:1066A0002148294698470123237105B0F0BD1A07F8
:1066B000C4D56379184D03F0F7036FF38203DAB2A0
:1066C000C2F340166371D6B905F1100393E80300D5
:1066D00002AC05F1080784E8030097E8030042F0E4
:1066E000100283E803006A71AE602046EE602B68FA
:1066F0000121984705B0F0BD1B079CD5D9E702F0F2
:10670000DF0242F010026A712B68012100209847D5
:1067100005B0F0BD14510240742B0020045102401A
:1067200008510240842B00207C2B00200649074A98
:10673000074B9B1A03DD043BC858D050FBDC02F02A
:1067400005FBFFF7AFFD0000FC0B0300982A0020BB
:10675000582B0020FEE7FEE7FEE7FEE7FEE7FEE738
:10676000FEE7FEE7FEE7FEE7704700BF00B583B037
:10677000044B0093044A402300F03AF803B05DF85C
:1067800004FB00BF8D670200902B002012B3144B56
:106790002DE9F047134E8846144643F001090327BC
:1067A0000025224608EB0501002005F029F90346E3
:1067B0001D444FF47A40E41A33B93378DFF824A04B
:1067C00033B1C847013F06D001233370002CE8D114
:1067D000BDE8F08770478AF80070BDE8F08700BF19
:1067E000F0FB02008C2B0020704700BF05F0CCB9F5
:1067F000F0B595B0002415460F4608461E4602F037
:1068000063F9384623460822089505A91A9D0D9577
:1068100009960A948DF82C400C9402F0ADF99DF87D
:106820001430079DBDF81800BDF81A108DF81140FE
:1068300003F00302012A0295ADF80C00ADF80E102A
:1068400028D0022A04D0384602F042F915B0F0BD33
:10685000BDF81650C3F3C2038DF81030C5F3891587
:106860000826082D2C4628BF0824334622460EA9A8
:10687000384602F081F92D1B214608AB02AA0EA86A
:10688000264400F087FC002DEBD1384602F020F9B9
:1068900015B0F0BDBDF81460059DC6F38316C3F3B3
:1068A000C204B2000EA9384608238DF81040C5F383
:1068B000952502F061F908AB0093324628460EA9EF
:1068C00002AB00F0C1FBBEE708B5FFF78FFF042164
:1068D000034800F087FB034B01225A7108BD00BF3B
:1068E000E40B0300982A002070B5304C84B004F506
:1068F000836001F0ABFC04F2144001F0A7FC626875
:10690000A66802EA0605AB1C04EB8301081D0979A1
:1069100011F0040117D0037803F00303012B37D0E3
:10692000022B0DD14388C3F3891302331A4406EABC
:106930000205AB1C04EB8303181D197901F0040157
:106940000029E8D1AB1C04EB8303511C586801906B
:10695000314004EB810300F00300DB68029301285F
:1069600002F102041AD0022816D1BDF80630BDF893
:106970000A50C3F38913033304EB93040B4E06F25E
:10698000144001F071FC00B17460284604B070BD81
:106990000388C3F38313C8E70025EFE7BDF804308D
:1069A000BDF80A50C3F383131C44E7E7D02B002043
:1069B0000B4B0C4810B50022FF21C3F81824996036
:1069C0001A605A60C3F8142483F8202402F034F8C3
:1069D000044610B9044802F047F9204610BD00BF34
:1069E000D02B0020600B03002CFC020021B9114BBE
:1069F00003EBC0000068704730B40F4A0D4C121B07
:106A0000D2080CD00D4D2B88834210D0002303E018
:106A100035F82310814205D001339A42F8D1002085
:106A200030BC704704EBC300006830BC70472046A0
:106A3000FAE700BF740B0300E40B0300582B00209F
:106A4000094B013903EBC00003290BD8DFE801F043
:106A500002080604022070474079704700797047A9
:106A60000420704700207047740B03002DE9F04F9D
:106A70009D4C626823689A4285B000F0CC80002368
:106A8000C4F81834BFF34F8F6268A56802EA0503A3
:106A9000023304EB83010E1D097948071FD5D4F892
:106AA00000E02746337803F00303012B48D0022B84
:106AB00004D17388C3F3891302331A4405EA02032D
:106AC0000233D4F81804DFF820C207EB83010E1D4F
:106AD00000283BD196453DD909794907E2D404EB1A
:106AE0008303511C58680190294004EB810300F096
:106AF0000300DB680293022802F102087A4F2ED0CD
:106B0000012800F08C80D4F810543DB12B68284641
:106B10009B689847EB681D68002DF7D1734B74484C
:106B20007449181AC008000440F0020000F0E6F8AA
:106B300094E80900181A18BF012005B0BDE8F08FCD
:106B40003388C3F3831302331A44B7E705EA020319
:106B50000233C4E7CCF804E005B0BDE8F08FBDF81F
:106B600006306548C3F38919B9F1500FCA46A8BF6A
:106B70004FF0500A6AF38F130AF10801ADF806309E
:106B800001F05CFF06460028BDD025EA080B0BF19A
:106B9000010B01F099FF4FEA8B0B0023082201A99A
:106BA000304601F0B5FFDA4576D9BBF1000F40F071
:106BB0008280524607F10C010823304601F0A8FFFD
:106BC00009F1030708EB9707D4F81834464A002B5D
:106BD0006DD1D2F810545DB1EB685A793146284630
:106BE0001AB12B681B689847EB681D68002DF3D11C
:106BF000304601F06DFF04A8002300F80D3D01F0C0
:106C00007FFAD4F81834384A03B957609DF8030066
:106C100001F09EFA8CE7002005B0BDE8F08FBDF8CA
:106C200004303548C3F38312062A28BF0622911C7C
:106C300062F389138900ADF8043001F0FFFE0646C7
:106C400000283FF460AF01F03FFF0023082201A9B4
:106C5000304601F05DFFBDF8043013F4707F40D082
:106C60004FF0000A4FF0080908EA050104EB810122
:106C70004B460C310422304601F04AFFBDF8043087
:106C80000AF1010AC3F3831308F10107534509F11F
:106C90000409B846E8D897E705EA080107EB81013F
:106CA0000C3152460823304601F032FF88E7304667
:106CB00001F00EFF3CE705EA080107EB8101CBEB91
:106CC0000A055A4630460C31EDB2082301F020FF88
:106CD0002A460BF1080307F10C01304601F018FFBA
:106CE0006EE7474670E700BFD02B0020A40B0300DF
:106CF000740B030014FC0200600B03002DE9F04349
:106D000083B002AB002203F8012DDFF8D8800546DE
:106D100018460F46D8F8086001F0F2F9D8F80820B4
:106D2000D8F80430D8F80040134401331B1B012B62
:106D300054D801212A4801F06DFAFFF7D5FD01462C
:106D4000274801F067FA98E80A00D8F808201344A9
:106D500001335B1A012BECD90A404FF0010908EB13
:106D6000820249F004036FF38913D360D8F800302E
:106D70009DF807000233C8F8003001F0E9F900215E
:106D8000174801F01FFA80F3100004EB09033340A9
:106D9000344008EB83030004023408EB840440EA27
:106DA0001540D860237965F3C5032371A3886FF379
:106DB0008913A380626867F39F22134669F3010376
:106DC0006FF382036260237198F820341BB1FFF7E0
:106DD0004DFE0028FBD103B0BDE8F0832146BBE7A0
:106DE000EC2F0020D02B00202DE9F04782B002AB21
:106DF000002403F8014DDFF8E890064618460F46D8
:106E00009046D9F8085001F07BF9D9F80810D9F864
:106E10000430D9F800400B4401331B1B022B5AD815
:106E200001212E4801F0F6F9FFF75EFD01462B48DF
:106E300001F0F0F999E80C00D9F808100B4401337F
:106E40009B1A022BECD94FF0010A0A4009EB82028F
:106E50004AF004036AF38913D360D9F800309DF82F
:106E600007000333C9F8003001F072F9A31C2B406E
:106E700009EB830300211948C3F80C8001F0A2F943
:106E800080F3100004EB0A032B402C4009EB830332
:106E90000004023409EB840440EA1640D8602379E8
:106EA00066F3C5032371A3886AF38913A38062681C
:106EB00067F39F2213466AF301036FF38203626054
:106EC000237199F820341BB1FFF7D0FD0028FBD1C6
:106ED00002B0BDE8F0872246B5E700BFEC2F0020E6
:106EE000D02B00202DE9F04F85B004AD002405F82B
:106EF000014D3A4C01930746284688469246A668BB
:106F000001F0FEF8A168636825680B4401335B1B40
:106F1000032B60D80121324801F07CF9FFF7E4FC33
:106F200001462F4801F076F994E80C00A1680B4463
:106F300001339B1A032BEDD94FF0010B0A404FF0A0
:106F4000020904EB82024BF0040169F38911D1605C
:106F500022689DF80F000432226001F0F9F805EB79
:106F60000900EA1C304004EB8000324004EB82024E
:106F7000C0F80CA0019B1A48D360002101F022F94F
:106F800080F3100005EB0B023240354004EB820227
:106F900000044D4404EB850540EA1740D0602A798F
:106FA00067F3C5022A71AA8869F38912AA806A6800
:106FB00068F39F2213466BF301036FF382036A6049
:106FC0002B7194F820341BB1FFF750FD0028FBD142
:106FD00005B0BDE8F08F2A46AEE700BFD02B0020F9
:106FE000EC2F002030B4174DD5F8104400215CB1CF
:106FF000E3681A79914204D117E0DB681A798A4272
:1070000013D01B68002BF8D1C3680E4A1971D5F84C
:10701000103493B1DC68C36824681C60D2F8103463
:10702000DB681860084630BC704701310A29DED1A0
:107030004FF0FF31084630BC7047C2F81004C268F8
:107040001360EFE7D02B00202DE9F04784B01D46F8
:107050000C9C002394F80C802373EB8881460E4629
:107060001746002B3BD1297A05290FD06B7A002BCC
:107070003DD1404BA88853F821A00021FFF7B6FC72
:10708000524603463C49204601F068F9062F0FD8C6
:10709000DFE807F0484D535A04633900F168B068DF
:1070A00096E80C00019100904946204601F056F9FF
:1070B0002B7A052B05D06B7A5BB93049204601F05D
:1070C0004DF9204601F03EF984F80C8004B0BDE88B
:1070D000F0872B4A2B49204601F040F9EDE7284A7A
:1070E00000922949294A204601F038F9BBE7A888CF
:1070F000FFF7A6FC264B234953F82020204601F039
:107100002DF9297AB5E77069316996E80C0003908A
:10711000B068F76802918DE881004946204601F089
:107120001DF9C5E74946204601F018F9C0E7326865
:107130004946204601F012F9BAE7494696E80C00A4
:10714000204601F00BF9B3E7B16896E80C00204641
:107150000091494601F002F9AAE7B068F768316981
:1071600096E80C0002918DE881004946204601F026
:10717000F5F89DE738FC02009CFC020018040300AF
:1071800090FC020098FC020078FC020070FC0200F7
:107190004CFC0200082900D970472DE9F0471D4634
:1071A000002395F80C902B73D38882B09046074645
:1071B0000E46002B67D198F80810052911D098F8D1
:1071C0000930002B67D13B4BB8F8040053F821403D
:1071D0000021FFF70BFC224603463749284601F001
:1071E000BDF8002405E03A5D013401F0B7F8082C41
:1071F0000AD0A64231492846F5D8314928460134FB
:1072000001F0ACF8082CF4D12E49DFF8DCA02846B8
:1072100001F0A4F800240FE0DAF800201A445278B4
:1072200012F0970F14BF1A462E2227492846013420
:1072300001F094F8082C0DD0A64204D93B5D7E2BBA
:10724000EAD92E22F1E721492846013401F086F8D7
:10725000082CF1D198F80830052B02D098F80930A5
:107260005BB91B49284601F079F8284601F06AF815
:1072700085F80C9002B0BDE8F087164A16492846FA
:1072800001F06CF8EDE7134A00921449144A2846BD
:1072900001F064F88FE7B8F80400FFF7D1FB114B59
:1072A0000D4953F82020284601F058F898F80810A6
:1072B00089E700BF38FC02009CFC0200A8FC020029
:1072C000B0FC0200B4FC0200B8FC0200BC0A0300DF
:1072D0001804030090FC020098FC020078FC0200F5
:1072E00070FC02004CFC0200E42A0020064A4FF029
:1072F000A043105CD3F8043523FA00F000F001003D
:1073000080F00100704700BF18FD0200044B195CBB
:107310004FF0A04201238B40C2F80C35704700BFEC
:1073200018FD0200044B195C4FF0A04201238B4072
:10733000C2F80835704700BF18FD02004FF0A043A7
:1073400010B44FF480204FF400344FF400214FF478
:107350008012C3F80845C3F80805C3F80815C3F838
:1073600008255DF8044B70474FF0A04310B44FF46C
:1073700080204FF400344FF400214FF48012C3F802
:107380000C45C3F80C05C3F80C15C3F80C255DF8C3
:10739000044B7047084B4FF0A0411B5CD1F804052B
:1073A000012202FA03F323EA00020340C1F8082590
:1073B000C1F80C35704700BF18FD0200064A4FF0B7
:1073C000A043105CD3F8103523FA00F000F0010060
:1073D00080F00100704700BF14FD02000D2809D0A5
:1073E0000E2809D00F2809D010280CBF03204FF019
:1073F000FF3070470020704701207047022070471F
:10740000014B185C704700BF14FD0200C20770B446
:107410001AD54FF0A04303224FF400364FF48025D5
:107420004FF400244FF48011C3F84427C3F84827D1
:10743000C3F84C27C3F85027C3F80865C3F80855AC
:10744000C3F80845C3F8081583070AD54FF0A043D1
:107450000C22C3F83427C3F83827C3F83C27C3F8F5
:10746000402770BC704700BF424B197800297FD07D
:107470002DE9F04F002487B001258E4603E001344A
:10748000E4B2744561D23C4B27B21E6816F837004F
:10749000A0F1200305FA03F9384BC0F12001D3E92C
:1074A000002325FA01F149EA010905FA00F808EA82
:1074B000020A09EA030B5AEA0B0C06EBC701DED0FD
:1074C00005912E4922EA080223EA0903C1E90023B3
:1074D00002F004F916F83760A6F1200205FA02F26C
:1074E00001920199C6F120035FFA80FA25FA03F3AD
:1074F000A6F1200219430AFA02F30393019105FA57
:1075000006F10091C6F1200703991D4B2AFA07F7EF
:107510003943D3E9002303910AFA06F1DDE900AB10
:1075200002910AEA020A0BEA030B52465B46DDE9C6
:1075300002AB5B4508BF5245059909D00D4B01349C
:1075400093F800E0E4B274459DD307B0BDE8F08F36
:107550004B68002BF2D04978A1F10101B1FA81F119
:107560004909091AB1FA81F1490930469847E5E716
:10757000704700BF6431002060310020903100204E
:10758000883100202DE9F8430646204800F00CFC25
:10759000D0B91F4F0123A6F1200103FA01F5C6F16E
:1075A0002002D7E9000123FA02F2154303FA06F498
:1075B00004EA000205EA0103134307D020EA0404A9
:1075C00021EA0505C7E90045BDE8F883304602F029
:1075D00085F8104ED6E9008998B148EA040849EACE
:1075E0000509D7E9002314431D43C6E90089C7E90B
:1075F0000045094B054819680022BDE8F84300F032
:107600007DBB28EA040829EA0509EAE76831002079
:1076100090310020883100205C310020042A01D8FC
:1076200007207047F0B583B00F460546164601F0B7
:107630000FFF002831D01B4C1B4A1C4B1C481D4916
:10764000256017707C1E00221E600023C0E9002305
:10765000C1E90023E4B2D7B10027032602E0DBB280
:10766000ACB11C4623B205EBC30215F83300937886
:10767000114A8DF8053001A98DF806708DF8046067
:1076800001F0F0FE631E0028E9D003B0F0BD0B4A04
:107690000B48002100F020FBF7E701F08DFE0028E9
:1076A000C9D0F2E760310020643100205C31002055
:1076B0008831002090310020857502006974020035
:1076C0001CFD020070B5084D2B785BB1074E0024FD
:1076D0003368012113F8340001F09EFF2B78013448
:1076E000A342F5D8002070BD643100206031002035
:1076F00000B585B000230390194601AA44F20100A9
:107700000193029303F00EFE05B05DF804FB00BF89
:1077100030B482B001248DF80740154B9DF8075016
:10772000186044F20104A04259609A6014D044F2F7
:107730000201884208D072B69DF80730002BFBD1B9
:1077400062B602B030BC7047DA60DA6812889A61BB
:10775000DA685268DA61EEE71A611A6992685A616A
:107760001A6912689A611A695268DA61E3E700BF20
:107770009831002059B10AB909207047531E1A40A8
:10778000FAD1826001608380C260104670470E208B
:10779000704700BF10B48468C26803468088121B1B
:1077A000904203D204205DF8044B7047DA681C68ED
:1077B00002400020A154DA680132DA605DF8044B1F
:1077C000704700BF03468068DA68904201D1052007
:1077D000704710B49A6898881C6802400020A25C28
:1077E0000A709A6801329A605DF8044B704700BFD6
:1077F000F8B5204A204B0025C2F84051C2F8445148
:10780000C2F84851C2F84C51C2F80051C2F80451B4
:107810001B6813B31949D2F804250C68141B1A68A5
:1078200024F07F44A2422F4609D8197CDE69A41AAD
:10783000154499B91EB133461A68A242F5D9104BC6
:1078400010491A780B789A420DD00F490F4A41F827
:1078500023504FF48013C2F80031F8BD1F745A69E9
:1078600098699047E6E7531CDBB2022B08BF002360
:107870000B70EAE700100140BC310020B831002055
:10788000C0310020C1310020D032002000E100E0F2
:107890002DE9F04FAB4AAC4913780978994287B08B
:1078A00036D00133DBB2022B08BF0023A748137088
:1078B000A74A076852F82310DFF8B0A27A18DAF85E
:1078C0000030002422F07F42026026462046A64671
:1078D000ABB11A688A4200F26581DC68C3F800E047
:1078E000891A1044DA6934B13D1825F07F45DE610C
:1078F0009C605D601E4613460124002BE9D1002CDC
:1079000040F084810023029301230393029D07E04A
:10791000DFF858A2DAF800300293002603961D46DD
:107920008C4BDFF83892DFF848B243F00103049340
:10793000002301934EB37068B3683446F669834AF6
:10794000854F1168421A22F07F42BA423AD8134456
:107950002360002201216260A260E2612174002D97
:1079600062D02968994245D2284603E011689942BD
:1079700030D21046C2695B1A002AF7D12360E26157
:107980002B46C4611D46002ED5D199F8003099F8D8
:10799000012072499A427DD05A1C8878D2B2904216
:1079A00003EB43030A7008BF0E7009EBC3010B79A8
:1079B0008C68022B49D0032B3BD0012B22D02B46C5
:1079C0001D46E0E7091A21F07F41994209D25B1A6E
:1079D0002360BEE7C91A11602360E2612B46C461CF
:1079E000D0E70023012223606360A360E361227477
:1079F000D5B12968CAF80040CB1A2B602346E5614F
:107A00001D46C0E7227C002AD9D1C86860600B6996
:107A1000A3604F69E7609BF800708969A161002F3E
:107A20008DD0626010468AE72346CAF800401D46A2
:107A3000A9E700220DB9C2E71D46EB692A74002BA5
:107A4000FAD1CAF800301D469DE75DB1AC4200F0A6
:107A50009180A84602E0944209D09046D8F81C20B4
:107A6000002AF8D12B46002222741D468BE744459C
:107A700000F08280E1692068C8F81C102B460029BC
:107A8000F0D00A6802440A60019A9D4218BF0122A0
:107A90000192E8E7019B13B9029B9D4279D0002D2A
:107AA00000F09880294B2E481C68D0F804652D4FB3
:107AB000D5F800903B78351B25F07F450335BBB9E1
:107AC000294B24494FF48032C0F844234FF0010879
:107AD000C0F804234FF40032C3F8802141F00101C3
:107AE0001A60C0F800804FF43C60884787F8008037
:107AF000A9452CBF4C446419194824F07F43C0F8B1
:107B00004035D0F80415891B9B1B21F07F4123F0E1
:107B10007F43033199420ED90E4BD0F80415C0F8BB
:107B2000401543F001034FF43C6098470E4B4FF46F
:107B30000031C3F8001100238BF8003007B0BDE816
:107B4000F08F00BFC0310020C1310020B8310020CB
:107B5000D032002020FD0200FEFF7F00C431002053
:107B600000100140D832002000E100E0BC310020CC
:107B7000C23100202A46A846EB69CAF80030264FD9
:107B8000CBB1D1691068C8F81C1000293FF47CAF54
:107B900077E7039B002B82D100238BF8003007B0DE
:107BA000BDE8F08F002C34D1521A02931A600123E1
:107BB0000393029DB4E60592184A1949012090608A
:107BC0008BF800000B604FF43C60049B98473B68C7
:107BD000059AD6E7114E1349134C4FF48033012711
:107BE0004FF40030C1F880003C43C6F848334FF4EE
:107BF0003C60C6F808337760A047094BB7604FF484
:107C00003C601D60A047094B1D7094E7CAF8003026
:107C100078E6CAF80030C7E7BC3100200010014008
:107C2000B831002000E100E020FD0200D832002041
:107C30002DE9F8431F4D204E204FDFF898804FF478
:107C400080334FF400324FF001090024C6F8802041
:107C500047EA0907C5F848334FF43C60C5F80833D4
:107C6000C5F80490B847C5F808904FF43C60C8F8D0
:107C70000040B847124B13481349144A1C70144B68
:107C800004600C7014704FF48011C0220B209870A7
:107C90001C705C70C6F8801186F814233160C5F83A
:107CA000084586F81123D5F80435C8F80030204679
:107CB000BDE8F8830010014000E100E020FD020073
:107CC000D8320020BC310020C0310020C13100205A
:107CD000C4310020B8310020074B9B780BB9082035
:107CE00070473AB130B10368187C0028F7D1597455
:107CF0005A61704707207047C43100202DE9F043D6
:107D0000264CA37883B01BB9082003B0BDE8F083EC
:107D10000028F9D0042903D8072003B0BDE8F08378
:107D20004369002BF0D0064602A8737C0025012B86
:107D300000F8015D0CBF8946A94690460F4600F049
:107D4000DFF96378A07821785A1CD2B2904208BF3C
:107D50002A4691421BD003EB430304EBC3030120EB
:107D60000F4918719E60D1F804159DF80700D9607D
:107D70001F61C3F81490C3F81880627000F0E8F92E
:107D8000084B4FF480122846C3F80021BDE79DF848
:107D9000070000F0DDF90420B7E700BFC431002080
:107DA0000010014000E100E070B51B4CA37882B0E8
:107DB00013B9082002B070BD0028FAD04369002B27
:107DC000F7D0064602A8002500F8015D357400F0E2
:107DD00097F96278A0782178531CDBB2984208BFEB
:107DE0002B46994212D002EB420204EBC20202215E
:107DF0009DF8070096601171637000F0A9F9074BB8
:107E00004FF480122846C3F80021D3E79DF80700FD
:107E100000F09EF90420CDE7C431002000E100E02D
:107E200030B50478012C83B026D017D3022C13D19F
:107E3000384B394D1A78C168AA5C01918DF8004021
:107E4000002A42D103F10C000122344902F010F95A
:107E5000334B68461B68984703B030BD3149324800
:107E6000FFF7B0FCF0B102A8032300F8083D2C4B4B
:107E70001B68984703B030BD43682C4D19782846DD
:107E8000FFF788FCC8B9AA68EB689A422ED1A968A6
:107E9000EB68AA885B1A9A421DD2254B01221A7000
:107EA00003B030BD1B481C4A0378D35C33BB0122AE
:107EB0001C490C3002F06CF8CEE7194B01908DF89C
:107EC00000401B6868469847E1E7181D01221349E6
:107ED00002F04EFBBCE70F480F4A0378D35C9BB916
:107EE00001220E490C3002F0C3F8B5E702AB0C4A90
:107EF00003F8080D126818469047C8E7012209499F
:107F0000043002F0DBFAA7E701220449043002F052
:107F10002FFBA1E7A02A00200C4A0020E432002019
:107F2000E0320020DC320020E8320020FC32002069
:107F3000F83200202DE9F043324C89B0226000294C
:107F400055D00C4680468A882F4809689946FFF725
:107F500011FC10B109B0BDE8F083A289A1682B48DB
:107F6000FFF708FC0028F5D1294D98F810E0294EBC
:107F7000D8F814700FCD6C460FC495E80F0098F830
:107F800011501EF1000E18BF4FF0010E002D84E8B5
:107F90000F0014BF0E220022D8F80040D8F8043099
:107FA000D8F808508DF8152006976946D8F80C7057
:107FB000194A8DF81C9030468DF814E0029703950D
:107FC0008DE8180001F05CF90028C3D1D8F8003022
:107FD000124A01331070BDD0114A3378D35C53B9C3
:107FE00006F10C0001220F4902F042F8B2E7072027
:107FF00009B0BDE8F083301D01220A4902F0B8FA49
:10800000A8E700BFE0320020FC320020E832002068
:1080100028FD0200A02A0020217E0200F832002064
:108020000C4A0020E432002070B5124C0146124880
:108030002678FFF7C7FB05460EB9284670BD0F48E6
:108040000F4A0378D35C0022227053B90C3001220E
:108050000C4902F00DF80028EFD0FFF749FB284645
:1080600070BD04300122074902F082FA0028F4D1E1
:10807000E3E700BFF8320020FC320020A02A0020F5
:108080000C4A0020E432002070B501461648FFF784
:1080900081FB044608B1204670BD144D144E2B7868
:1080A000F35CABB905F10C0001F0D6FF0028F2D16A
:1080B00010490D48FFF786FB0028ECD12B780D49BD
:1080C000F35C012253B90C48BDE8704001F060BF79
:1080D000281D02F03FFA0028DDD1E9E70748BDE896
:1080E000704002F0EBB900BFE8320020A02A002067
:1080F0000C4A0020DC320020AC2A0020A42A0020F8
:10810000F0B4EFF3108472B60E4B9A68B2B90E4910
:1081100001259D60D1F880700C4D2E463D401D60BC
:10812000C1F88060D1F884505D604FF0FF33C1F832
:108130008430027004B962B6F0BC7047012303704A
:10814000F8E700BF004A002000E100E0FC06FFBDA8
:10815000094B9A6872B168B910B4EFF3108272B625
:1081600006491C680C605C684C60986002B962B695
:108170005DF8044B704700BF004A002000E100E0BA
:1081800001F01F024B09012100EB8300914000F038
:1081900025B800BF10B4012201F01F044B0902FAF8
:1081A00004F100EB8300C9435DF8044B00F024B8F0
:1081B0004B0901F01F0150F82300C84000F00100F6
:1081C000704700BF00B550E8002F0B4640E8003E66
:1081D0009EF0000FF7D110465DF804FB00B550E8A3
:1081E000003F43EA010240E8002E9EF0000FF6D166
:1081F00010465DF804FB00BF00B550E8003F03EAFD
:10820000010240E8002E9EF0000FF6D110465DF806
:1082100004FB00BF00B550E8003F03EB010240E85B
:10822000002E9EF0000FF6D110465DF804FB00BF53
:1082300000B550E8003FA3EB010240E8002E9EF09D
:10824000000FF6D110465DF804FB00BF00B5012316
:1082500050E8002F42EA030E40E800E191F0000FE1
:10826000F6D170465DF804FB00B5002350E800EF3E
:108270000EEA030240E8002191F0000FF6D17046AB
:108280005DF804FBB8B130B4416882680468521AE2
:10829000D2B2531E2160DBB242B101680A685C1E93
:1082A000551C0D601370E3B2FF2BF6D1036800205C
:1082B000187130BC70470E20704700BF70B582B097
:1082C00002AB002503F8015D04461846FFF718FFCE
:1082D000236861681A688A4210D9511E19602168A2
:1082E000A3680E680879258A12F8012CE4689B1BA4
:1082F000DBB2984205FB024538BF0B719DF80700C1
:10830000FFF726FF284602B070BD00BF30B583B02E
:1083100002AB002203F8012D054618460C46FFF774
:10832000EFFE2A681368591C1160E9682A8A641AEA
:10833000B4FBF2F41C709DF80700FFF709FF03B0CF
:1083400030BD00BF826802B9704710B5044643696A
:108350000168006998470023A36010BD0EB400B502
:1083600082B0039929B102AA04AB42F8043D00F09F
:10837000A3F802B05DF804EB03B070472DE9F04FAD
:10838000164683B0B1428A4605469846DDF830B0BD
:108390000D9AC0F08D800B460127B3FBF6F39E4289
:1083A00007F10107F9D9474538BF474612F00103E5
:1083B000009302D1BBF1000F59D1A868012403E05A
:1083C00008F1FF3806FB04F4B8F1010FF8D8BAFB46
:1083D000F4F29642F6D9DFF8DC904FF00D0810E089
:1083E0002968421CAA600B54AA686B689A4202D39F
:1083F0002846FFF7A7FFB4FBF6F4C4B1BAFBF4F2CA
:10840000A86819F802300A2B02FB14AAE8D12968DF
:10841000421CAA6001F80080A8686A689042DFD315
:1084200028460193FFF78EFFA868019BD8E7009BC1
:10843000B3B1BBF1000F13D0BB4588BF20240FD9C7
:10844000AB682A68591CA960D454AA686B689A4220
:108450000BF1FF3B07D2BBF1000F01D0BB45EFD8BA
:1084600003B0BDE8F08F2846FFF76CFFF3E79307F2
:1084700018D42024BB45A0D9A8682A68431CAB6047
:108480001454A8686A6890420BF1FF3B05D2BBF117
:10849000000F93D0BB45F0D890E72846FFF752FF76
:1084A000A868F4E7B8F1000F0CBF30242024E1E7FE
:1084B000012778E748FD0200002900F098822DE9A5
:1084C000F04FDFF870A50D7885B0064691460C4652
:1084D0000134002D00F0A180252D40F0A3814FF044
:1084E0000008214614F8013B2D2B00F09581302B1C
:1084F00000F095812B2B00F087812A2B00F0A281C0
:10850000A3F13005EAB2092A98BF013102D9CBE1C3
:10851000A2F130050C4611F8013BA3F1300005EB48
:108520008502092803EB4202F2D91A462E2A00F0EE
:108530009581002701E014F8012F02F0FB03682B5E
:10854000F9D0253A532A63D8DFE812F040016200DF
:10855000620062006200620062006200620062000B
:1085600062006200620062006200620062006200FB
:1085700062006200620062006200620062006200EB
:1085800062006200620062006200620062006200DB
:1085900062006200620062006200620062006200CB
:1085A00062006200620062006200620062006200BB
:1085B00062004F01620062006200620062006200BD
:1085C00062006200620062002901D1006200620064
:1085D00062006200D100620062006200620062001C
:1085E0006200AC00620062006E0062005400620033
:1085F00062004F01D9F800301A1DC9F8002019682F
:10860000CDF804803B4600950A223046FFF7B6FEBF
:1086100001342578002D7FF45BAF337B002B40F0D5
:10862000A48105B0BDE8F08FD9F800301A1DC9F853
:10863000002018F0010F1F6840F03A81002F00F071
:10864000D981384605F0DCFC8046454515D9A5B1F1
:108650004FF0200B00E085B1B2683368511CB16067
:1086600003F802B0B26873689A4205F1FF3502D38D
:108670003046FFF767FE4545EDD8013F17F8015F2B
:10868000002DC5D00A2DB36800F04E813268591C08
:10869000B160D554B26873689A42EFD33046FFF7A1
:1086A00051FEEBE7D9F80020131DC9F80030B3687C
:1086B00031681568581C3022B060CA54B3687268BB
:1086C000934280F02C813268581C7821B060D154DC
:1086D000B26873689A4280F01E81002208230192DA
:1086E0002946009310223046FFF748FE90E7D9F85C
:1086F00000301A1DC9F80020D3F800B08BEAEB73E4
:10870000A3EBEB73092B4FF0010108DD8AFB030299
:10871000DB17C3EBA203092B01F10101F6DCB9421F
:1087200038BF394635B1BBF1000F02DB18F0040F3A
:1087300000D0013D18F0020F40F0E98018F0010F61
:1087400017D1002D00F038818D4288BF202310D929
:10875000B268501CB06030688354B268706882425E
:1087600005F1FF3580F02A81002D00F025818D4232
:10877000EED8BBF1000FC0F24F8118F0040F40F0AB
:10878000258108F00303022B00F0F5808DE820011D
:108790003B4659460A223046FFF7F0FD38E7D9F844
:1087A00000301A1DC9F800201D78B3680A2D00F0AA
:1087B00023813268591CB160D554B26873689A42FB
:1087C000FFF426AF3046FFF7BDFD21E7B3683268FE
:1087D000581C2521B060D154B26873689A42FFF4E6
:1087E00017AF3046FFF7AEFD12E7D9F800301A1D7B
:1087F000C9F800201968CDF804803B460095102286
:108800003046FFF7BBFD03E7214614F8013B2D2B53
:1088100048F004087FF46BAE48F0010861E648F0C8
:1088200002085EE60A2DB3682FD03268591CB16089
:10883000D554B26873689A42FFF4EBAE3046FFF746
:1088400081FDE6E6D9F800301A1DC9F800204A7803
:108850001D682E2A01F101047FF46BAE6278A2F14B
:108860003003092B04F101044FF000073FF665AE19
:1088700007EB870702EB470714F8012FA2F130033B
:10888000092BA7F13007F3D957E6591C3268B160BC
:108890004FF00D01D154B36872689342C5D330468E
:1088A000FFF750FDB368C0E71A460C4600253DE6C9
:1088B000B846C7EB080B18F8013B9BB10A2BB1680F
:1088C00042D03268481CB0605354B26873689A4210
:1088D000EFD33046FFF736FDC7EB080B18F8013B26
:1088E000002BEBD15D457FF693AE2027B26833684D
:1088F000511CB1609F54B26873689A4205F1FF350C
:1089000002D33046FFF71EFD5D45EFD880E6002F0D
:108910003FF42FAF12E73046FFF714FDDDE6304697
:10892000FFF710FDB368CEE6591C3268B1604FF016
:108930000D01D154B36872689342FFF4A7AE30467C
:10894000FFF700FDB368A1E6481C3268B0604FF045
:108950000D005054B16872689142B2D33046029310
:10896000FFF7F0FCB168029BABE7304605B0BDE80D
:10897000F04FFFF7E7BC002F7FF408AF002D37D092
:108980008D4288BF30237FF601AFB268501CB060C3
:1089900030688354B2687068824205F1FF3503D2B3
:1089A00035B38D42F1D8F1E6304603930291FFF7DB
:1089B000C9FC039B0299F3E70025DAE630460393EE
:1089C0000291FFF7BFFC039B0299CDE6B268531CEE
:1089D000B36033682B209854B26873689A42FFF4EE
:1089E000D0AE30460291FFF7ADFC0299C9E6704760
:1089F0000025CBE6B84628E6591C3268B1604FF036
:108A00000D01D154B36872689342FFF4D2AE304680
:108A1000FFF798FCB368CCE6B268531CB3603368C8
:108A20002D209854B26873689A42CBF1000BFFF482
:108A3000A8AED6E767666666FFF724BC2DE9F0416D
:108A4000B0F81080A8F104084144CF1C0646B7FBDB
:108A5000F8F7FFF733FC80B3FFB200250123013F95
:108A60000446A0F8068006600571437128D0804650
:108A700009E06379AF4203F101036371C8F80000B4
:108A8000066080461CD03046FFF718FC01350028F0
:108A9000EFD16679721E234603D0013082421B68F3
:108AA000FBD81F684EB100252368214601353846A2
:108AB0001C46FFF72BFCAE42F6D10020BDE8F0814A
:108AC0002046BDE8F08100BF04300121FFF7A2BBC2
:108AD000F8B5012104460430FFF7AAFBC0B200B18B
:108AE000F8BD6679721E234603D0013082421B68AE
:108AF000FBD81F68002EF3D00025236821460135DE
:108B000038461C46FFF702FCAE42F6D1F8BD00BF66
:108B10002DE9F843C788467907FB06F6D518043EC9
:108B2000AE42044603F10400884638BFF51AB0FB94
:108B3000F7F128BF154607FB110011B10139246870
:108B4000FCD13E1AAE4228BF2E469DB14FF000091F
:108B50002044AD1B324608EB0901043005F0C6F88D
:108B6000AF42B14424683E464FF0000028BF2E4675
:108B7000002DEDD1BDE8F8832DE9F843C78890F8C2
:108B800005E007FB0EFED518AEF1040EAE45044617
:108B900003F104008846B0FBF7F638BFC3EB0E05BF
:108BA00007FB160128BF154616B1013E2468FCD10B
:108BB0007E1AAE4228BF2E469DB14FF000092144D7
:108BC000AD1B0431324608EB090005F08FF8AF42C7
:108BD000B14424683E464FF0000128BF2E46002DC8
:108BE000EDD1BDE8F88300BF41DF7047064A074B6F
:108BF00010B5002414701C60BFF35F8F0449054852
:108C000000F040F8204610BD0C3300201033002047
:108C100064FD02001433002000B583B002A80023D5
:108C200000F8013DFFF76CFAF1EE103A23F09F03D4
:108C3000E1EE103ABFF35F8F0A4B4022C3F8842164
:108C40009DF80700FFF784FA04F054FE28B920BF0E
:108C500040BF20BF03B05DF804FBFFF7C5FF03B0C2
:108C60005DF804FB00E100E0826800239360826805
:108C70001361826853618268D3608268536082683E
:108C80001360704701600B6843604A68934204BFF9
:108C900000234360704700BF426842B101688B689F
:108CA000134443604A68934204BF00234360704703
:108CB00030B4184DA5F59472AB1ADB1003EBD373E7
:108CC0005B1002EBC30152F83330984228BF0C46C8
:108CD00005D311E052F8333098420CD221468B1A5A
:108CE000DB1003EBD3735B10914202EBC304F1D8AA
:108CF000094830BC70470D46984204D904F1080277
:108D0000AA42D9D3F4E76068034B002808BF18468D
:108D1000EFE700BF840203008402030070B5161E53
:108D200007DD0C468D1914F8010BFFF7ADF9A542CC
:108D3000F9D1304670BD00BF10B50C462046FFF794
:108D400073F90528FAD0012010BD00BFF0B4B44B70
:108D50001A78062A20D0B34B1B68062B00F08A80B5
:108D6000B14AD2F8883043F47003C2F88830BFF3B8
:108D70004F8FBFF36F8F4FF01023D3F80022002ADC
:108D8000C0F28A81D3F80432002BC0F28581A74B50
:108D9000A74A1A60F0BC704704331B681807DAD181
:108DA000A44B1B6803F0F002302A00F0658103F049
:108DB000E003402B00F060819E4B1B6803F0F00342
:108DC000302B00F01E819B4B1B6803F0F002302A11
:108DD00000F0078103F0E003402B00F00281954B87
:108DE0001B6803F0F003302B00F0EB80914B1B6805
:108DF00003F0F002302A00F0D08003F0E003402BB3
:108E000000F0CB808B4B1B6803F0F003302B00F09D
:108E1000B680884B1B6803F0F003302B00F098807D
:108E2000844B1B6803F0F003502B3FD0814B1B6831
:108E300003F0F002302A28D003F0E003402B24D0C6
:108E40007C4B1B6803F0F002302A03D003F0E003F0
:108E5000402B80D14FF08043D3F80024D2077FF518
:108E60007AAF6FF00102C3F800246E4B1B68062B2B
:108E70007FF476AF704B1B68062B7FF471AF6F4A9F
:108E8000136843F4806313606AE76D4B6D4A1B6897
:108E900003F04F031360624B1B78062B7FF45BAF2C
:108EA000694B1B6818077FF456AFC9E74FF0805233
:108EB000664BD2F80414C3F82015D2F80814C3F88E
:108EC0002415D2F80C14C3F82815D2F81014C3F8DE
:108ED0002C15D2F81414C3F83015D2F81814C3F8AE
:108EE0003415D2F81C14C3F84015D2F82014C3F876
:108EF0004415D2F82414C3F84815D2F82814C3F83E
:108F00004C15D2F82C14C3F85015D2F83014C3F80D
:108F10005415D2F83414C3F86015D2F83814C3F8D5
:108F20006415D2F83C14C3F86815D2F840143C48D4
:108F3000C3F86C15D2F844140278C3F87015062AE9
:108F40007FF409AF404B1B681C077FF404AF6DE74B
:108F50003F4E404C4049414B0527012500203F2210
:108F60003760256008601A602D4B1B78062B7FF454
:108F7000F2AE354B1B681D077FF4EDAE50E7284B72
:108F8000374A1B780321062B11607FF4E4AE2E4B89
:108F90001B681E077FF4DFAE3BE74FF080430022E3
:108FA000C3F80C21C3F81021C3F838251C4B1B78DB
:108FB000062B7FF470AF244B1B681F077FF4CBAEEA
:108FC00020E72849164ACB68127823F08073062AD6
:108FD000CB607FF4C0AE1C4B1B681B077FF4BBAE9D
:108FE00004E7214B0E4A1B6812782049C3F3423331
:108FF000062A0B60B8D1144B1B681A077FF4ABAE7E
:10900000EDE6074B1A4A1B781A491160062B7FF4CC
:10901000A2AE0D4B1B6819077FF49DAED3E600BFCF
:10902000E00F00F03001001000ED00E0B42A002055
:109030000090D003E80F00F0340100103C1700400E
:1090400058020010E40E0040E40F00F000C00040A1
:1090500010560040885600401856004014560040F4
:10906000A0050040F0ED00E0440200103C05004087
:1090700074C007400DF0ADBA204B214A1B6812782E
:109080002049C3F30423062A0B608FD11E4B1B68B3
:1090900019073FF491AE5EE61C4B0122C3F804258C
:1090A000D3F80024002AFBD04FF0102315221749D3
:1090B000C3F80022D1F80034002BFBD04FF010236E
:1090C00015221249C3F80422D1F800240F4B002ABC
:1090D000FAD00022C3F80425D3F80024002AFBD0DC
:1090E000BFF34F8F0A490B4BCA6802F4E062134387
:1090F000CB60BFF34F8F00BFFDE700BF240300101C
:10910000E00F00F040350140E40F00F000E00140C6
:1091100000ED00E00400FA0510B568B101280AD19D
:109120000C4C2369A07033B10CCB0120226198470D
:109130002369002BF8D110BD064CA3680122627090
:10914000002BF8D00CCB0020A2609847A368002B1E
:10915000F8D110BD1C33002068B910B5064CA368C7
:109160000122627033B10CCB0020A2609847A36843
:10917000002BF8D110BD70471C33002030B50128FA
:1091800083B01CD015D3032811D100F0C7F802A872
:1091900000231E4C00F8013DFEF7B2FFE368013BDF
:1091A000E360E5685DB39DF80700FEF7D1FF03B00B
:1091B00030BD174B0122C3F8802003B030BD02A898
:1091C0000023124C00F8013DFEF79AFF23785BB9AB
:1091D00010486360A3602361E36000F091F804F03D
:1091E00089FB80B101232370E3689DF807000133F8
:1091F0000122E360A270FEF7ABFF03B030BD00F0C8
:109200009FF8A570CFE700F089F8EBE71C3300204A
:1092100000E100E01991020070B50A4A0A4B067895
:1092200045688468C06853F8213052F8211084B032
:1092300003908DF8006001958DF8084068469847C6
:1092400004B070BD343300203033002070B50A4ABA
:109250000A4B067845688468C06853F8213052F894
:10926000211084B003908DF8006001958DF80840BE
:109270006846984704B070BD343300203033002076
:10928000F0B507460678194D1948DFF870E00C690B
:109290004B7F45F826400EF8063040F826200C4655
:1092A00094460FCC89B06D460FC594E80F003C780A
:1092B0001EF8044085E80F0004965CB9BCF1000F6D
:1092C0000C4A694607F10C0008BF002200F09AFD25
:1092D00009B0F0BDBCF1000F074A694607F1040070
:1092E00008BF002201F004F809B0F0BD34330020BB
:1092F000303300204D920200199202000C4A0020E7
:10930000054A13790BB18520704701211060537114
:1093100018461171704700BF38330020074B1A6898
:10932000D20704D4C021012283F800131A604FF041
:1093300080430122C3F81825704700BF00E100E018
:10934000044B01221A604FF08042D2F81834DB033C
:10935000FBD470470C00004010B5144B1A6882B063
:1093600062B10021124A19601B68507900934FF0D6
:1093700080410123009CC1F8083390B10D4B1A685D
:109380006AB100221A601B6801934FF080420221EB
:10939000074B0198C2F808131B680120984702B0D8
:1093A00010BD116853718847E8E700BF0001004015
:1093B000383300200401004070B5214C94F8585017
:1093C00082B015B1082002B070BD4FF0FF332946BE
:1093D000FF26042204F1540023636363A363E36361
:1093E00023646364A364E36423606360A360E36055
:1093F00023616361A361E361236284F85030636297
:10940000A36284F85230E36284F8533084F85160E8
:1094100004F006FD0B4A0C4B0C491D60C026402091
:1094200082F8066310601B68019301984FF00043B7
:109430000122284684F85820C1F8043302B070BDD8
:109440004033002000E100E07C610040006000400B
:10945000034B93F85800003018BF0120704700BF3D
:1094600040330020F0B56A4C231893F93050002D9A
:1094700001DB0820F0BD91F802E0CEF3400E9446E7
:10948000BEF1000F56D02568013500F0B2800826E5
:1094900000256B1C5E4F54F82320013251D0AB1CC9
:1094A000B34245D257F8232001324AD0EB1CB342D5
:1094B0003ED257F82320013243D02B1DB34237D27E
:1094C00057F8232001323CD06B1DB34230D257F8FD
:1094D0002370013735D0AB1DB34229D254F8232075
:1094E0004B4F01322DD0EB1DB34221D257F8232030
:1094F000013226D005F10803B34219D257F82320D0
:1095000001321ED005F10903B34211D257F82320CE
:10951000013216D005F10A03B34209D257F823707D
:1095200001370ED00B35B54202D2E36A013307D0C2
:109530000420F0BD256A013561D00C260825A8E776
:109540000B2326185DB244F823C086F83050BEF1D4
:10955000000F02D1234483F848008B785A0715D4B2
:10956000DE073DD5830003F1A043D3F8002722F0A6
:109570000202C3F80027274FC60800F0070EBA5DA5
:10958000012303FA0EF31343BB558B78C3F3400357
:1095900053B9083D2C44097894F8502042EA8112CE
:1095A00084F850201846F0BDAD0005F1804505F562
:1095B000C0450B78D5F8102522F4473222F44072CA
:1095C000C5F810251B04000203F44032D5F810152D
:1095D00000F4F85313430B43C5F810350020F0BDD9
:1095E0004A784FF0A04600F5E073920046F8232039
:1095F000C1E70025C4F800C083F83050ADE7082665
:1096000083F830603546C4F820C03346A2E700BF77
:109610004033002094330020F0B42E4D2E1882B039
:1096200096F93030072B1CDD2B4493F848309B090A
:10963000032B41D0012B14BF4FF440334FF40033C0
:10964000800000F1A040D0F8002722F44032C0F89A
:109650000027D0F800271343C0F8003702B0F0BC51
:109660007047DAB2072AF9D8980000F1804000F577
:10967000C04003F140029200D0F8104592B202F1CE
:109680008042002744F0010402F5C042C0F81045B2
:109690000197019817600029E0D096F9302055F81D
:1096A0002220002ADAD001220B4902FA03F3C1F882
:1096B000043302B0F0BC70474FF0A043D3F810352C
:1096C000C34013F0010F0CBF4FF400334FF440338D
:1096D000B6E700BF40330020006000404FF0A043D9
:1096E000D3F8103523FA00F000F00100704700BFF6
:1096F0002DE9F04387B00026C94B01961A68012A6C
:1097000000F00482C74B1A68012A00F0F181C64BB1
:109710001A68012A00F0DE81C44B1A68012A00F0A1
:10972000CB81C34B1A68012A00F0B881C14B1A687B
:10973000012A00F0A581C04B1A68012A00F092812D
:10974000BE4B1A68012A00F07F81BD4B1A68012ABE
:1097500000F0598116F0FF0F1AD0BA4F01250024EE
:10976000A30003F180432E4203F5C0434FEA4505B1
:109770000BD0D3F8100557F82420D3F81015C0F3F8
:109780000420C1F3014102B190470134082CE7D114
:10979000002E02DB07B0BDE8F083AA4C00224FF098
:1097A000FF3327460292039301260DF1080894F92E
:1097B00050104D1C2DD0C9B221F0C00006AB4FEAAD
:1097C000D00E03EB0E0201F0070312F80CCC06FAE0
:1097D00003F31CEA030F1CD03D18890995F930509A
:1097E00057F82590B9F1000F00F0E880032900F048
:1097F000E8804FEA800E0EF1A04E12F8145CDEF8FD
:1098000000271D40C2F3014240F0B580032A00F05A
:10981000A281002594F95110481C2FD0C9B221F023
:10982000C00006AB4FEAD00E03EB0E0201F00703B7
:1098300012F80CCC06FA03F31CEA030F1ED007EB58
:10984000000C89099CF930C057F82C90B9F1000F31
:1098500000F0C680032900F0C6804FEA800E0EF1AA
:10986000A04E12F814CCDEF800271CEA030FC2F356
:10987000014240F08D80032A00F0928194F9521049
:109880004A1C2ED0C9B221F0C00006AB4FEAD00E60
:1098900003EB0E0201F0070312F80CCC06FA03F3F7
:1098A0001CEA030F1DD007EB000C89099CF930C09E
:1098B00057F82C90B9F1000F00F08980032900F0CF
:1098C00088804FEA800E0EF1A04E12F814CCDEF81C
:1098D00000271CEA030FC2F3014265D1032A00F0FE
:1098E0004C8194F953104B1C2CD0C9B221F0C0000C
:1098F00006AB4FEAD00E03EB0E0201F0070312F89D
:109900000CCC06FA03F31CEA030F1BD007EB000C88
:1099100089099CF930C057F82C90B9F1000F69D033
:10992000032969D04FEA800E0EF1A04E12F814CC34
:10993000DEF800271CEA030FC2F3014211D1032A0B
:1099400000F0F080002D3FF425AF4FF0A043019AC6
:10995000D3F8103593423FF41DAF029A019303925E
:1099600025E7022AEED1032900F02D81B9F1000F7D
:10997000E8D0C847E6E7022A7FF44BAF032900F09E
:109980002B810025B9F1000F3FF444AFC84741E7F0
:10999000022A7FF473AF032900F01881B9F1000F98
:1099A0003FF46CAFC84769E7022A9AD1032900F057
:1099B0001081B9F1000F94D0C84792E703297FF4D2
:1099C00028AF18F80E501D4308F80E5011E7032970
:1099D00087D118F80EC04CEA030C08F80EC070E7E7
:1099E00003297FF44BAF18F80EC04CEA030C08F8BB
:1099F0000EC032E70329A5D118F80EC04CEA030CBB
:109A000008F80EC08EE700221A601B6805934FF01D
:109A1000A043059AD3F81035019346F0004699E625
:109A20000061004004610040086100400C6100409A
:109A30001061004014610040186100401C6100404A
:109A40007C61004040330020654AD2F804231706A9
:109A50007FF57BAE00221A601B680493049B46F0DE
:109A6000800672E65E4AD2F8042352067FF568AE9D
:109A700000221A601B680493049B46F040065FE6D0
:109A8000574AD2F8042391067FF555AE00221A609A
:109A90001B680493049B46F020064CE6504AD2F81B
:109AA0000423D0067FF542AE00221A601B6804939F
:109AB000049B46F0100639E6494AD2F804231407FD
:109AC0007FF52FAE00221A601B680493049B46F0BA
:109AD000080626E6424AD2F8042355077FF51CAE55
:109AE00000221A601B680493049B46F0040613E6E8
:109AF0003B4AD2F8042397077FF509AE00221A608B
:109B00001B680493049B46F0020600E63449D1F832
:109B1000041311F001011CD01E601B680493049B08
:109B20001646EFE503297FF421AF4FF40033DEF84A
:109B3000002722F44032CEF80027DEF80027013556
:109B40001343EDB2CEF80037B9F1000F7FF411AF37
:109B5000FBE60E46D6E503297FF414AF4FF400333D
:109B6000DEF8002722F44032CEF80027DEF8002786
:109B70001343CEF80037012504E703297FF419AF1A
:109B80004FF40033DEF8002722F44032CEF80027ED
:109B9000DEF8002701351343EDB2CEF8003708E7B1
:109BA00003297FF4FBAE4FF40033DEF8002722F4E4
:109BB0004032CEF80027DEF8002701351343EDB21E
:109BC000CEF80037EAE64FF44033B0E74FF44033C5
:109BD000EBE74FF44033D5E74FF44033C0E700BF25
:109BE00000600040014B1B68184700BF9C330020F9
:109BF000104B984201D00020704730B583B002A8C6
:109C0000002300F8013D0D46FEF77AFA0A4B1C7955
:109C100034B19DF80700FEF79BFA112003B030BD68
:109C200001229DF807001D601A71FEF791FA204687
:109C300003B030BD002000409C33002030B56F4A97
:109C4000D2F8043399058BB05CD5D2F82431002BBF
:109C500058D00023C2F82431D2F8243103934FF4B2
:109C60000171674B0398C2F8081393F8291009B9DA
:109C700001215160614902228DF81820D1F8802419
:109C8000C1F880249869D968099200220890079148
:109C90009A6193E81200DA6106A8A047574AD2F801
:109CA0001C31C3B1564B186A5969884267D293F880
:109CB000280000F0FF04002861D1C2F81C41D2F84E
:109CC0001C11029102999C68186A196A205C013182
:109CD0001962C2F81C05494AD2F8443183B1002107
:109CE000474BC2F84411D2F8440193F82910009070
:109CF000009809B1012111609A69414B002A53D1A2
:109D00000BB030BD3D4AD2F804335B07C6D5D2F85C
:109D10000831002BC2D03A4B9969002953D0002159
:109D2000C2F80811D2F8081104910499D868596A48
:109D3000D2F8182542545A6A996901325A62586A0F
:109D40002F4A8842AAD1D169002945D192F8292009
:109D500012B92A4A01215160284A4FF40171C2F810
:109D60000813596ADA6808910024012007928DF8D7
:109D7000180093E806009C6106A890478EE71F4AEA
:109D80000020C2F81C01D2F81C210192019A00297E
:109D9000A1D09A688DF8180008915861079206A81A
:109DA00093E80600904796E70022586AD9689A61BE
:109DB0000122089007918DF8182006A893E8060064
:109DC00090470BB030BDC2F80811D2F808010590D9
:109DD0000598D2F81825B2E7D568546A10699161E0
:109DE00000230121D060D36153628DF818100795CC
:109DF000089492E80A0006A898474FE70020004020
:109E0000A43300202DE9F0415C4E05792C2303FB9F
:109E1000056382B093F82A301BB1082002B0BDE878
:109E2000F0810F460446564900689046FFF7E0FE71
:109E300018B1112002B0BDE8F0813A68511C0BD076
:109E40004FF0A04101239340C1F808353B6803F56A
:109E5000E073032241F823207B685A1C06D003F5E7
:109E6000E0734FF0A042002142F823102368BA6942
:109E7000C3F82425797D3B7D22680B43C2F86C35FD
:109E800097E806002368C3F81425C3F80C153B7D3A
:109E9000012B49D02C2303FB05F3F218C2F80480F0
:109EA0003A69F250B8F1000F2DD023683A7F354F50
:109EB0000021C3F81C11D3F81C3100932368DDF88E
:109EC00000E0C3F84411D3F84411236801910199CB
:109ED000C3F804732168090B4BB2002B46DB03F176
:109EE000604303F561435201D2B283F80023236833
:109EF000254F1B0B5AB2520903F01F03012101FA2F
:109F000003F347F822302C23246803FB0563002267
:109F100004250121C4F8005583F82A109A61DA61FA
:109F200083F829205A6179E7BB68591C06D003F5EC
:109F3000E0734FF0A042002142F82310FB685A1C46
:109F40000DD001224FF0A04102FA03F3C1F8083509
:109F5000FB6803F5E073032241F82320FB682268C5
:109F6000B968C2F80835C2F8101593E7074B01F03D
:109F70000F0152010B44D2B21A76B8E7A433002085
:109F80003D9C02008000020000E100E0FCEC00E0EB
:109F9000F0B5304E05792C2303FB056385B05C6971
:109FA00014B1112005B0F0BD1C62996083F82840FF
:109FB0005A610268C2F81C41D2F81C110268029171
:109FC0000121029F91600268D3F808E0C2F81C41A9
:109FD000D2F81C1101910199D3F820C0196A5F6869
:109FE0001EF80CC001311962C2F81CC517B1204619
:109FF00005B0F0BD1A6A5C690168944203D819E0A3
:10A0000093F82820F2B9D1F81C21002AF8D0C1F821
:10A010001C71D1F81C210392039AD3F820C01A6A4C
:10A020001EF80CC001321A62C1F81CC51A6AA2429D
:10A03000E9D30168D1F81C31002BFBD00123CB60A0
:10A04000002000E00F202C2303FB056300225A614F
:10A05000A8E700BFA43300200279044B2C2101FBA8
:10A0600002335869003018BF01207047A433002024
:10A07000F0B4534D04792C2303FB045386B05F687E
:10A0800027B103684FF40176C3F808632C2303FB60
:10A0900004539E6976B1DE691EB3002F00F08D80F7
:10A0A000036811214FF401720846C3F8042306B077
:10A0B000F0BC704793F829709A61D9605E62DE61E6
:10A0C000002F30D02C2303FB04535A688AB1036855
:10A0D0004FF40172C3F804230021084606B0F0BC17
:10A0E0007047DA6119612C2303FB04535A68002A74
:10A0F000EDD10168C1F84421D1F844210392039ABB
:10A100000268D2F82461D2F80871D2F84411E7B994
:10A11000002945D1002EF4D02C2303FB0454002346
:10A12000A3610321D9E70368C3F82471D3F824217C
:10A1300003680192019AC3F80871D3F808210368F3
:10A140000292012202991A60BCE7002EE4D149BBB9
:10A150009E69C2F8081186B1D2F808610496049E7F
:10A16000DF685E6AD2F81825BA555A6A9E690132CC
:10A170005A625A6A9642C3D806E0D2F80861059638
:10A18000059ED2F818255B6A2C2303FB0454002299
:10A1900094F82930A26163B1036801221A609CE738
:10A1A000002EB9D12C2303FB04540023A3610F21FB
:10A1B00093E7036801225A608FE711218DE700BF02
:10A1C000A433002070B5484BD3F8242188B0002A6E
:10A1D00053D1D3F81011F1B9434BD3F8442152B104
:10A1E0000021424AC3F84411D3F8444190690194D4
:10A1F000019C00285DD13C4BD3F820214AB10021BD
:10A20000C3F82011D3F82001384A00900098506913
:10A2100028BB08B070BDC3F81021D3F81011334823
:10A22000039103998469D3F83C15A142D4D1C46940
:10A23000002C4DD0D3F80062846126F02004C5685C
:10A24000C3F800420369C26101220691C36001683C
:10A25000436805958DF8102004A89847BCE7D3F80B
:10A260004C05936806908DF810105161059304A871
:10A2700092E80A00984708B070BD0021C3F8241185
:10A28000D3F82421029202228DF81020029AD3F8EA
:10A290008004164AC3F880040790D3F83C05D368BD
:10A2A00006909161D16105931168536804A898479D
:10A2B00092E7D3F83C35D068069301239161D161D0
:10A2C00005908DF8103004A892E80A00984792E7AC
:10A2D000C2688461012306918DF81030059290E8E0
:10A2E0000A0004A8984777E700200040D0330020F8
:10A2F0002DE9F04304796C4EE7003B1906EB83032C
:10A3000085B093F820301BB1082005B0BDE8F0837C
:10A3100089460546654900689046FFF769FC18B113
:10A32000112005B0BDE8F083D9F80020511C0CD0F5
:10A330004FF0A04101239340C1F80835D9F800300F
:10A3400003F5E073032241F82320D9F804305A1CA6
:10A3500006D003F5E0734FF0A042002142F823102D
:10A360002B68D9F81820C3F8242599F8151099F806
:10A3700014202B680A43C3F86C252A68D9F80030EA
:10A38000D9F80410C2F80C35C2F8141599F8143035
:10A39000012B5AD03A199200B318C3F80480D9F8A7
:10A3A0001030B350B8F1000F40D0296899F81C2044
:10A3B000DFF800E10023C1F81031D1F8101100914D
:10A3C0002968DDF800C0C1F82031D1F820110191D1
:10A3D0002968DDF804C0C1F82431D1F824110291B4
:10A3E0002968DDF808C0C1F84431D1F844112B6860
:10A3F00003910399C3F804E32968090B4BB2002BBE
:10A400004ADB03F1604303F561435201D2B283F8A2
:10A4100000232B68DFF8A0E01B0B5AB2520903F0AF
:10A420001F03012101FA03F34EF822303C442A684D
:10A4300006EB8404002301250821C2F8001584F8E6
:10A440002050A361E36163615FE7D9F80830591CCC
:10A4500006D003F5E0734FF0A042002142F823102C
:10A46000D9F80C305A1C0FD001224FF0A04102FA4B
:10A4700003F3C1F80835D9F80C3003F5E073032273
:10A4800041F82320D9F80C302A68D9F80810C2F80E
:10A490000835C2F810157DE7054B01F00F01520198
:10A4A0000B44D2B21A76B4E7D0330020C5A1020023
:10A4B000FCEC00E01003020000E100E001F060436A
:10A4C000B3F1005F01D010207047F0B50579204E40
:10A4D000EF007C1906EB840483B0636913B111208B
:10A4E00003B0F0BD6261A1600268C2F82031D2F809
:10A4F00020E10268CDF804E0DDF804E0C2F858314C
:10A50000D2F8582100920268DDF800E0D4F814E097
:10A51000C2F84415C2F848E50268012191606268FA
:10A520000AB11846DCE7036800E079B9D3F82021C6
:10A53000D3F85811002AF8D0002914BF0F200020AA
:10A540007B1906EB830300225A61C9E70F20F7E766
:10A55000D03300200379054A03EBC30302EB8303E6
:10A560005869003018BF0120704700BFD033002069
:10A5700001F06043B3F1005F01D010207047F0B5E7
:10A580000379454DDE00F41805EB840483B0676859
:10A5900027B104684FF4047EC4F808E3334405EBA4
:10A5A00083039C696CB3DC69002C44D11961DA61C6
:10A5B0000368C3F81041D3F8106103680196019E47
:10A5C000C3F84441D3F8444103680094009CC3F8A5
:10A5D0003415C3F838250268D2F8003243F020035E
:10A5E000C2F800320279D600B31805EB83035B682A
:10A5F0004BB303684FF40472C3F80423002003B084
:10A60000F0BD9A61DC61D9600368C3F81041D3F8EA
:10A61000106103680196019EC3F84441D3F8444198
:10A6200003680094009CC3F83415C3F83825036808
:10A6300001221A60D6E707B303684FF40472C3F827
:10A6400004231120DBE7036801E0C4B9E8B9D3F8BB
:10A650001011D3F84441D3F824010029F5D0324435
:10A6600000284FF0000305EB820514BF03201846B5
:10A670009C42AB6118BF0F20C1E71120BFE73244F5
:10A6800005EB82050F20A961B9E7324405EB82058D
:10A690000320AC61B3E700BFD03300200220FCF7F9
:10A6A00079BE00BF2DE9F0470D460646FCF796FE41
:10A6B00003281ED8012D04461FD00ED3022D1AD117
:10A6C0001C4B00EB40041C44657895B11A4B1B6889
:10A6D0007BB12846BDE8F04718471848FDF764FBF2
:10A6E0001449174A04EB44030B44155D9B789D42C3
:10A6F000EBD0BDE8F087BDE8F087DFF83880470091
:10A700003B1808EB030218F8035053782BB9274481
:10A7100047440B4BBA781A55D7E7DFF8289007481B
:10A720004A464FF40041FDF7E9FA0028EFD189F8D5
:10A730000060ECE7703400202C340020303400201E
:10A74000F8330020F433002010B50078FCF746FE03
:10A7500003280BD8064B00EB40001844407828B182
:10A76000044B1B6813B1BDE81040184710BD00BF73
:10A77000703400202C340020B44B1B68DB0700D45D
:10A78000704770B5B24EB34D33782C78FBB9172CA7
:10A790001CD8DFE814F0F100170117016300760000
:10A7A000830096005D0039002C0039002C00A300C6
:10A7B000A800A800A800A800A800CE00DE000401A0
:10A7C000460018001800FCF7CFFD2C7070BDA24B9E
:10A7D0001B7800203070002B00F00881FCF7A2FDF0
:10A7E0000120FCF79FFD0320FCF79CFDCFE7012330
:10A7F00018463370FCF7CEFD00224FF48041974895
:10A80000BDE87040FDF77ABA012318463370FCF7B3
:10A81000C1FD002240F6CD419048BDE87040FDF7F3
:10A820006DBA8D4B1B78002B00F001810020FCF7E6
:10A8300079FD0120FCF776FD0320FCF773FD002075
:10A84000FCF764FD0120FCF761FD15232B7070BD42
:10A850000020FCF75BFD07232B7070BD0020FCF788
:10A8600045FD002800F0D6800020FCF75BFD46F295
:10A87000666103232B7000227848BDE87040FDF725
:10A880003DBA0020FCF732FD002800F0C88000200F
:10A89000FCF748FD4FF400310423EBE70020FCF700
:10A8A00025FD002800F0C0800020FCF73BFD0523BB
:10A8B0002B70002241F69A116848BDE87040FDF700
:10A8C0001DBA0020FCF766FD06232B70002240F61F
:10A8D000CD416248BDE87040FDF710BAFCF744FD79
:10A8E0000C232B7070BD5E48FDF75EFAD4F11104A5
:10A8F00005467ED000287CD1012C13D0C82303FB51
:10A9000004F44FF4FA704FF400430021C3FB040138
:10A910004FF47A72002304F0CFFF2A4601465048D4
:10A92000FDF7ECF90220FCF7F1FC4B4B01221A7009
:10A9300070BD494B1B78002B7CD00020FCF7F2FC4B
:10A940000120FCF7EFFC0320FCF7ECFC12232B703A
:10A9500070BD414B1B78002B72D00020FCF7E2FC4D
:10A960000120FCF7DFFC0320FCF7DCFC0020FCF7F7
:10A97000CDFC13232B7070BD374B1B78002B5CD0A4
:10A980000020FCF7CFFC0120FCF7CCFC0320FCF7F7
:10A99000C9FC3248FDF708FA00232B7070BD2E4B1E
:10A9A0001B78002B4FD00020FCF7BCFC0120FCF7EB
:10A9B000B9FC0320FCF7B6FC0120FCF7A7FC14232C
:10A9C0002B7070BD0020FCF791FCC8B10020FCF793
:10A9D000A9FC022C4EF2666118BF4FF400312C70B6
:10A9E00000221E48BDE87040FDF788B9FCF7A6FCC0
:10A9F000CDE60220FCF796FC174B00221A7070BDC2
:10AA0000FCF784FC43F2333341F69A11022C18BF51
:10AA10001946E4E7FCF77AFC41F69A1129E7FCF7BE
:10AA200075FC43F2333137E7FCF770FC3FE7FCF786
:10AA300085FC04E7FCF782FC88E7FCF77FFCA8E7CD
:10AA4000FCF77CFC92E7FCF779FCB5E700340020CA
:10AA50000434002028340020FC330020503400202F
:10AA600008340020032801D900207047FCF7A6BC59
:10AA700038B5C54B1B6813F0010401D1204638BD21
:10AA8000C24C23780546E3B9172D00F28981DFE82F
:10AA900015F00B013501350169007D009100A5001D
:10AAA0005B003500280035002800B300BA00BA006A
:10AAB000BA00BA00BA00E300F600200142006300C9
:10AAC0006300B34B1B7800202070002B00F02B811B
:10AAD000FCF728FC0120FCF725FC0320FCF722FCF6
:10AAE000D2E7012318462370FCF754FC00224FF4F0
:10AAF0008041A848BDE83840FDF700B90123184659
:10AB00002370FCF747FC002240F6CD41A148BDE888
:10AB10003840FDF7F3B89E4B1B78002B00F02481E2
:10AB20000020FCF7FFFB0120FCF7FCFB0320FCF7F7
:10AB3000F9FB0020FCF7EAFB0120FCF7E7FB964B52
:10AB400015221A70002499E70020FCF7DFFB924BD6
:10AB500007221A70002491E7FCF706FC8E4B0024B4
:10AB60001D708BE70020FCF7C1FB002800F0E5809A
:10AB70000020FCF7D7FB46F26661874B854803242B
:10AB80001C700022BDE83840FDF7B8B80020FCF783
:10AB9000ADFB002800F0E0800020FCF7C3FB4FF481
:10ABA00000317D4B7B4804241C700022BDE83840F6
:10ABB000FDF7A4B80020FCF799FB002800F0D18035
:10ABC0000020FCF7AFFB744B724805241C70002278
:10ABD00041F69A11BDE83840FDF790B80020FCF727
:10ABE000D9FB6D4B6B4806241C70002240F6CD410A
:10ABF000BDE83840FDF782B8FCF7B6FB664B0C2287
:10AC00001A7000243AE76548FDF7CEF80446D5F1FE
:10AC1000110000F08B80002C40F08880012814D0B7
:10AC2000C82505FB00F54FF400434FF4FA700021EE
:10AC3000C3FB05014FF47A72002304F03DFE224667
:10AC400001465648FDF75AF804460220FCF75EFB21
:10AC50004F4B01221A7011E74D4B1B78002B00F06F
:10AC600086800020FCF75EFB0120FCF75BFB0320E5
:10AC7000FCF758FB484B12221A700024FEE6444BA6
:10AC80001B78002B79D00020FCF74CFB0120FCF74F
:10AC900049FB0320FCF746FB0020FCF737FB3E4B4B
:10ACA00013221A700024E9E6394B1B78002B61D07F
:10ACB0000020FCF737FB0120FCF734FB0320FCF7F6
:10ACC00031FB3448FDF770F8334B002204461A700C
:10ACD000D4E62F4B1B78002B52D00020FCF722FB30
:10ACE0000120FCF71FFB0320FCF71CFB0120FCF7F5
:10ACF0000DFB294B14221A700024BFE60020FCF73C
:10AD0000F5FAF8B10020FCF70DFB022D4EF266615A
:10AD100018BF4FF40031204B1E481D700022BDE8C3
:10AD20003840FCF7EBBFFCF709FBADE60220FCF76F
:10AD3000F9FA174B00221A70A0E6FCF7E7FA41F681
:10AD40009A111AE7FCF7E2FA43F2333341F69A110B
:10AD5000022D18BF1946DEE7FCF7D8FA43F233316B
:10AD60001FE7FCF7D3FA2EE7FCF7E8FAE1E6FCF779
:10AD7000E5FA7FE7FCF7E2FAA3E7FCF7DFFA8BE7F7
:10AD8000FCF7DCFAB2E700BF0034002004340020F6
:10AD9000FC330020503400202834002008340020E8
:10ADA00000246BE6F8B5254B254A19608107044657
:10ADB000106014D5234B24480E2111250F2710268F
:10ADC00019705D7240F266620421DF709E71FCF7BB
:10ADD00025FC0546C0B1E3072AD42846F8BD10F08B
:10ADE0000105FAD00120FCF711FB184A1848002190
:10ADF000FCF772FF05460028EFD1164A16480121DC
:10AE0000BDE8F840FCF768BFFCF75CFC054600288D
:10AE1000E1D10146114A1248FCF75EFFE207054600
:10AE2000DBD50120FCF7F2FA002DDED02846F8BD74
:10AE30000120FCF7EBFA2846F8BD00BF2C340020B7
:10AE40000034002070340020D002030079A70200F3
:10AE5000C80203009DA60200C402030049A7020025
:10AE6000CC020300032801D907207047012A12D021
:10AE7000012917D008D30229F6D10D4B00EB400071
:10AE8000034400205A707047094B00EB4000034414
:10AE900000209A707047012901D00022E8E700F1F4
:10AEA0000E02D2B200EB400301490020CA547047A1
:10AEB00070340020032801D90620704708B5FCF73C
:10AEC0009FFA800000F1A0430020D3F8002722F46D
:10AED0004032C3F80027D3F8002742F44032C3F8C9
:10AEE000002708BD10B50388102B08D0112B05D101
:10AEF000264B18680138186038B110BD10BD234CBE
:10AF0000216881B10131216010BD01220221FFF7CA
:10AF1000A9FF48B3072827D01D4B1B68002BECD096
:10AF2000BDE81040184701220846FFF79BFF48B1D3
:10AF3000072807D0164B1B6803B1984721680131D9
:10AF4000216010BD072202210120FFF78BFF08B10D
:10AF50000728EFD1042202210020FFF783FF0028F9
:10AF6000ECD00728E6D1E9E7072202210120FFF70C
:10AF700079FF08B10728CFD1002108460A22FFF740
:10AF800071FF0028B9D00728C6D110BD8034002039
:10AF90007C34002008B50020FFF78CFF10B1062894
:10AFA00000D008BD0120FFF785FF0028F9D0062852
:10AFB00008BF002008BD00BF194B10B5186031B1A3
:10AFC00001200C46FFF74EFD30B102232370154BD4
:10AFD000186848B1002010BDFFF744FDE8B9114BD7
:10AFE000207018680028F5D101220221FFF73AFFEE
:10AFF00008B10728EFD1072202210120FFF732FF15
:10B0000008B10728E7D1002108460A22FFF72AFFE6
:10B010000028DFD00728DED1DCE70B232370D6E73A
:10B020007C3400208034002076DF70477ADF704760
:10B030007CDF70477FDF70478FDF7047B1DF70477D
:10B0400033DF704710B50D4B4A881B889A4204467F
:10B0500006D0228861880A48BDE8104002F044BF4B
:10B060000A8840F677239A42F3D18A880548033A42
:10B0700092B2114602F038FFEBE700BFE02A002051
:10B080004403030028030300FCF732BB10B5038818
:10B09000103B82B00446462B34D8DFE803F0475714
:10B0A0003360333333333333333333333333332452
:10B0B0003333333333333333333333333333333360
:10B0C000333333333333333333353333333333334E
:10B0D0003333333333333333333333333333333340
:10B0E0003D3333333500244802F0FEFE0023A088B0
:10B0F0008DF8043001A98DF80530FFF79DFF08B1E8
:10B10000FCF7F6FA02B010BD80881321FFF78CFF20
:10B110000028F5D102B010BD184A00231088194646
:10B120001A46FFF78BFF0028ECD0E9E7144802F03D
:10B13000DBFE0720FFF79CFCD8B9104BA188114813
:10B14000198002F0B9F90028DCD0D9E70E4802F0E6
:10B15000CBFE0A4B4FF6FF721A8002B010BD074AB1
:10B160000023108885211A46FFF764FF0028C9D004
:10B17000C6E7FCF7BDFAE0E79C030300E02A0020E5
:10B1800080030300903600208C03030008B5037889
:10B1900003B108BD054B3B211888FFF745FF002888
:10B1A000F7D0BDE80840FCF7A3BA00BFE02A0020B2
:10B1B000072808B51CD00A280ED0042800D008BDE6
:10B1C000154B13211888FFF72FFF30F00803F6D036
:10B1D000BDE80840FCF78CBA0020FFF749FCB8B97D
:10B1E000FFF7D8FE88B9FFF72BFF0028F0D108BD84
:10B1F000094B1A884FF6FF739A42E0D1074801F0D5
:10B200005FFB30F00803DAD0E2E7FCF771FAEAE717
:10B21000FCF76EFAE4E700BFE02A00209C3600202D
:10B2200011F0010108B502D1064B197008BDFBF7FA
:10B230008DF920B9034A13780133137008BDFCF768
:10B2400057FAF7E784350020F8B5047804B1F8BD63
:10B2500005461C4802F048FEAB8A43B12B691A48E8
:10B26000195D02F041FEAB8A01349C42F6DB174CBB
:10B27000174802F039FE2068AA8A1318B3F5477FF1
:10B280001AD2144E2969304402F030FDAA8A23688C
:10B2900011481344002731462360F75402F024FE7E
:10B2A000AB8A2A69134413F8013C232BCFD10B4BF3
:10B2B000276001221A70CAE711460948BDE8F84024
:10B2C00002F012BEB0030300B8FC02008C3600206E
:10B2D00018040300043A0020D8030300003A0020B9
:10B2E000B8030300FCF704BA08B530B1032803D152
:10B2F0000220FFF7BDFB50B908BDFFF7B9FB50B9FD
:10B30000FFF748FE50B9FFF79BFE0028F4D0BDE8D8
:10B310000840FCF7EDB9FCF7EBF9F1E7FCF7E8F9C9
:10B32000F1E700BFFCF7F4B90178002973D0F8B554
:10B330000546502908D0532961D0452959D03A48AB
:10B34000BDE8F84002F0D0BD384802F0CDFD4FF422
:10B3500080266B782C2B05F1010555D0232B53D07B
:10B36000A3F13002092A43D8002403E0232B0ED096
:10B37000092A3DD804EB840403EB440415F8013F8B
:10B38000303C2C2BA3F1300204F0FF04EED1214617
:10B39000274802F0A9FDC52C3ED8C4F1C503DBB295
:10B3A000013303EB4303234901EB830E002241F8F1
:10B3B000232001201146CEF80420CEF80820CF0823
:10B3C000304201F0070314BF0E2208225EF8274026
:10B3D0009B0002FA03F30131234418294FEA40008D
:10B3E0004EF82730EBD1697801350029A1D1F8BD9D
:10B3F000F8BD114802F078FD4FF48066A9E70F48C8
:10B4000002F072FD0426A4E70021094802F06CFD59
:10B4100040F25223C7E770472146C6220848BDE8DC
:10B42000F84002F061BD00BFFC030300EC03030021
:10B430001C040300203D0020F4030300E403030088
:10B440002404030038B50378012B044602D00DD341
:10B45000022B0AD14520FCF717FE2120FCF714FE31
:10B460006068BDE83840FCF743B938BD124C134D55
:10B4700020782844FCF7D8FD2378E85CFCF704FE2C
:10B4800023780133DBB2591E23706A5C0A2A0ED07E
:10B490000D2A0CD0F32B0DD9002308486B54FFF76D
:10B4A00043FF074B01221A700023237038BD012B84
:10B4B000FAD9F1E738BD00BFE8390020F4380020A0
:10B4C000003A002008B50949094801F087FE48B94B
:10B4D000F721074801F098FE00B908BDBDE8084013
:10B4E000FCF706B9FCF704F9F2E700BF45B002002B
:10B4F000EC3900202DE9F04F9E4E9F4C0FCEB3B09B
:10B5000007AD0FC596E8030000229C4B01924FF453
:10B51000807285E803000393994D0492069203A973
:10B5200007A80723974A02940595FCF703FD08B185
:10B53000FCF7DEF84FF400410020FBF739FA08B1C0
:10B54000FCF7D6F8FBF7C0F9FCF772FB08B1FCF783
:10B55000CFF88D490320FFF725FC08B1FCF7C8F8A8
:10B5600007A90020FFF728FD08B1FCF7C1F8FDF797
:10B570003DFB08B1FCF7BCF802F036F908B1FCF766
:10B58000B7F8002307A90120079302F005FA08B1D4
:10B59000FCF7AEF807A802F0DDFA08B1FCF7A8F84E
:10B5A0009DF80C307948012262F3030362F307131C
:10B5B0008DF80C3002F024FD744982B203A8FFF725
:10B5C00037FD08B1FCF794F80822002107A802F023
:10B5D00027FC10253C2100224FF4C87307A8ADF8C2
:10B5E0001C50ADF81E10ADF82020ADF82230FFF74A
:10B5F0001DFD08B1FCF77CF8FFF764FF644B65485C
:10B60000079307A901F046FF08B1FCF771F8002184
:10B61000042203A802F004FC5F4B6048039303A9D3
:10B6200002F06EF808B1FCF763F8AC22002107A81D
:10B6300002F0F6FB0225002005210123584F594A4C
:10B640008DF81C5040268DF81E0044F250658DF890
:10B650001F105548ADF8683007A98DF898301B9732
:10B6600029962A95309200F0D9FE08B1FCF740F8EF
:10B6700001214D4800F0CEFE1C2200210DEB0200FE
:10B6800002F0CEFB4FF4203700234FF47026032541
:10B690004649474A079307A8ADF82A308DF82C3061
:10B6A000089709968DF828500C910D9201F07CFABC
:10B6B00008B1FCF71DF800203E4EFBF7A7FE3E4800
:10B6C00002F012FC0FCE07AD0FC533682B60FF22CE
:10B6D00000231B264FF0C05538498DF8202007A8BD
:10B6E0008DF81E208DF81F600A958DF82C308DF88E
:10B6F0002630FAF70BFE08B1FBF7FAFFC52100264A
:10B7000008274B1C03EB430304EB830544F8236039
:10B7100000226E60AE604FEAD20E02F0070355F8C9
:10B720002E009B0007FA03F301320344182A45F860
:10B730002E30F0D10139C9B2FF29E2D10023204DCA
:10B740001A4601A84FF416712B70FAF785FE08B15E
:10B75000FBF7CEFF1A4B1B4E1B78012B98BF46F010
:10B76000010731D84020B847154B1B78012BF9D978
:10B770002AE000BFF0020300203D002088350020B1
:10B780008434002045B40200B1B10200A4040300D7
:10B79000E5B202009036002049B20200B82A00202B
:10B7A000D42A0020E9B202009C3600208DB10200AC
:10B7B00089B0020008030300B004030021B20200B4
:10B7C0008435002020030300FAF7F8FE032346F037
:10B7D00001099B460026B6F5804F00F08880402E78
:10B7E00000F089804FF4806A4FF480464FF0C5081E
:10B7F000002708F1010303EB430304EB830044F843
:10B8000023704FF0010E476087600021CA081EEACE
:10B810000A0F01F0070C14BF0E23082350F8225022
:10B820004FEA8C0C03FA0CF301312B4418294FEA30
:10B830004E0E40F82230E9D1684B00224FF41671C9
:10B8400001A81F70FAF708FE20B1FBF751FF01E0D5
:10B850004020C847614B1B78012BF9D908F1FF380C
:10B86000FAF7ACFEB8F1FF3FC3D15B46013B9B4604
:10B87000B1D15B4802F038FB4FF4FA664FF47A40DE
:10B88000C847013EFAD1C52108274B1C03EB4303EF
:10B8900004EB830E44F823600020CEF80460CEF859
:10B8A00008604FEAD00C00F007035EF82C209B00E4
:10B8B00007FA03F30130134418284EF82C30F0D166
:10B8C0000139C9B2FF29E0D10023444D1A464FF493
:10B8D000167101A82B70FAF7BFFD08B1FBF708FF3E
:10B8E0003E4B1B78012B0BD84020C847F8E74FF0A0
:10B8F000040A40267AE74FF4802A4FF4800675E761
:10B90000FAF75CFE374802F0EFFA0321364800F000
:10B9100009FE08B1FBF7ECFEDFF8E080DFF8CCA011
:10B92000C3460027082602E09AF800304BB9FBF71F
:10B930009DF80028F8D1FDF76FF99AF80030002B38
:10B94000F5D02A4B4FF0C50E1F700EF1010303EB2B
:10B95000430304EB830044F82370002247608760B0
:10B96000D10802F0070350F821509B0006FA03F3B8
:10B9700001322B44182A40F82130F1D10EF1FF3E5C
:10B980005FFA8EFEBEF1FF0FDFD198F800106C2930
:10B9900020D19BF80110232918D0154802F0A4FAF1
:10B9A0000E4B00224FF4167101A81F70FAF754FDD8
:10B9B00010B108E04020C847084B1B78012BF9D98B
:10B9C000FAF7FCFDB3E7FBF793FEF5E70948FFF74D
:10B9D000ABFCE5E7084802F087FAE1E78435002090
:10B9E000C4040300CC0403009C360020003A00206D
:10B9F00054040300063A002080040300043A0020A7
:10BA00002DE9F84F4400DFF87CA126180AEBC606A2
:10BA10008146F36A012B8B46174642D032D3022B64
:10BA20003AD100F1010909EB4909756A4FEAC909E0
:10BA30004FF000081CE0326A641BBC420AEB0901AB
:10BA40002346A2EB050428BF3B469C42486828BF1A
:10BA50001C4628445946224602F048F9336A2544D8
:10BA60009D4208BF00253F1BA044A344756215D02A
:10BA7000B36AAB4203F1FF34DDD8326A1344013BB1
:10BA80005C1BDAE7B36A756AAB429CBF326A9B18EB
:10BA9000013B5B1B9F4237D94FF000084046BDE891
:10BAA000F88FB36A756AAB4226D903F1FF38366A5C
:10BAB000C5EB0808B84528BFB846761BB04542D349
:10BAC00009F1010707EB47070AEBC707A1447868AC
:10BAD0003246594628440AEBC90AC6EB080502F06B
